:020000040800F2
:1000000000500020490C0008E50B0008ED0B00082B
:10001000F50B0008FD0B0008050C000800000000AF
:100020000000000000000000000000000D0C0008AF
:10003000190C000800000000250C0008310C000815
:10004000910C0008910C0008910C0008910C00081C
:10005000910C0008910C0008910C0008910C00080C
:10006000910C0008910C0008910C0008910C0008FC
:10007000910C0008910C0008910C0008910C0008EC
:10008000910C0008910C0008910C0008910C0008DC
:10009000910C0008910C0008910C0008910C0008CC
:1000A000910C0008910C0008910C0008910C0008BC
:1000B000910C0008910C0008910C0008910C0008AC
:1000C000910C0008910C0008910C0008910C00089C
:1000D000910C0008910C0008910C0008910C00088C
:1000E000910C0008910C0008910C00080000000021
:1000F0000000000000000000000000000000000000
:0C01000000000000000000005FF808F1A3
:10010C0010B5054C237833B9044B13B10448AFF345
:10011C0000800123237010BD0C00002000000000A3
:10012C00342C000808B5034B1BB103490348AFF34B
:10013C00008008BD0000000010000020342C0008D6
:10014C0080B586B002AF0346FB71FB7923F00F0339
:10015C00FB73FB791B01BB73FB7B43F00C03DBB222
:10016C003B72FB7B43F00803DBB27B72BB7B43F03F
:10017C000C03DBB2BB72BB7B43F00803DBB2FB723C
:10018C0007F108026423009304234E21034801F075
:10019C00DDF900BF1037BD4680BD00BF2800002030
:1001AC0080B586B002AF0346FB71FB7923F00F03D9
:1001BC00FB73FB791B01BB73FB7B43F00D03DBB2C1
:1001CC003B72FB7B43F00903DBB27B72BB7B43F0DE
:1001DC000D03DBB2BB72BB7B43F00903DBB2FB72DA
:1001EC0007F108026423009304234E21034801F015
:1001FC00ADF900BF1037BD4680BD00BF2800002000
:10020C0080B582B000AF8020FFF79AFF00237B609F
:10021C0005E02020FFF7C4FF7B6801337B607B681F
:10022C00452BF6DD00BF00BF0837BD4680BD80B54D
:10023C0082B000AF786039607B68002B03D07B689C
:10024C00012B05D009E03B6843F080033B6004E0E0
:10025C003B6843F0C0033B6000BF3B68DBB2184611
:10026C00FFF76EFF00BF0837BD4680BD80B500AFFD
:10027C00322000F06BFD3020FFF762FF052000F00C
:10028C0065FD3020FFF75CFF012000F05FFD3020A2
:10029C00FFF756FF0A2000F059FD2020FFF750FF12
:1002AC000A2000F053FD2820FFF74AFF012000F040
:1002BC004DFD0820FFF744FF012000F047FD012011
:1002CC00FFF73EFF012000F041FD012000F03EFD54
:1002DC000620FFF735FF012000F038FD0C20FFF75A
:1002EC002FFF00BF80BD80B582B000AF786006E004
:1002FC007B685A1C7A601B781846FFF751FF7B68A5
:10030C001B78002BF4D100BF00BF0837BD4680BD61
:10031C0080B500AF00221021B04800F0BAFF0122D6
:10032C002021AE4800F0B5FF01224021AB4800F07F
:10033C00B0FF01228021A94800F0ABFF0121A748A2
:10034C0000F090FF0346002B09D100BF0121A34808
:10035C0000F088FF0346002BF8D037233BE1022145
:10036C009E4800F07FFF0346002B09D100BF0221FD
:10037C009A4800F077FF0346002BF8D038232AE187
:10038C000421964800F06EFF0346002B09D100BFF4
:10039C000421924800F066FF0346002BF8D0392365
:1003AC0019E108218D4800F05DFF0346002B09D1AF
:1003BC0000BF0821894800F055FF0346002BF8D0F8
:1003CC00412308E101221021844800F062FF002241
:1003DC002021824800F05DFF012240217F4800F07F
:1003EC0058FF012280217D4800F053FF01217B48FA
:1003FC0000F038FF0346002B09D100BF01217748DC
:10040C0000F030FF0346002BF8D03423E3E0022148
:10041C00724800F027FF0346002B09D100BF0221D0
:10042C006E4800F01FFF0346002BF8D03523D2E0B6
:10043C0004216A4800F016FF0346002B09D100BFC7
:10044C000421664800F00EFF0346002BF8D036233B
:10045C00C1E00821614800F005FF0346002B09D1DB
:10046C0000BF08215D4800F0FDFE0346002BF8D0CC
:10047C004F23B0E001221021584800F00AFF01225E
:10048C002021564800F005FF00224021534800F07F
:10049C0000FF01228021514800F0FBFE01214F4852
:1004AC0000F0E0FE0346002B09D100BF01214B48B0
:1004BC0000F0D8FE0346002BF8D031238BE002214C
:1004CC00464800F0CFFE0346002B09D100BF0221A5
:1004DC00424800F0C7FE0346002BF8D032237AE0E6
:1004EC0004213E4800F0BEFE0346002B09D100BF9C
:1004FC0004213A4800F0B6FE0346002BF8D0332313
:10050C0069E00821354800F0ADFE0346002B09D107
:10051C0000BF0821314800F0A5FE0346002BF8D09F
:10052C00532358E0012210212C4800F0B2FE012286
:10053C0020212A4800F0ADFE01224021274800F07E
:10054C00A8FE00228021254800F0A3FE01212348AB
:10055C0000F088FE0346002B09D100BF01211F4883
:10056C0000F080FE0346002BF8D0302333E002214C
:10057C001A4800F077FE0346002B09D100BF022178
:10058C00164800F06FFE0346002BF8D02E2322E015
:10059C000421124800F066FE0346002B09D100BF6F
:1005AC0004210E4800F05EFE0346002BF8D04423D5
:1005BC0011E00821094800F055FE0346002B09D133
:1005CC0000BF0821054800F04DFE0346002BF8D073
:1005DC00432300E00123184680BD00BF0008014002
:1005EC0080B582B000AF00F04FFB00F023F800F0B4
:1005FC0045F900F093F800F0C7F800F015F900F099
:10060C005FF8FFF733FEFFF7FBFD00210020FFF73B
:10061C000EFE0748FFF767FEFFF77AFE0346FB71F5
:10062C00FB79012BF8D0FB791846FFF7B9FDF3E7FE
:10063C004C2C000880B590B000AF07F118032822AD
:10064C000021184602F0C4FA3B1D00221A605A60C1
:10065C009A60DA601A610123BB614FF48033FB614D
:10066C0000233B620123BB6202237B634FF4803384
:10067C00BB634FF4E013FB6307F11803184601F05A
:10068C00BDFA0346002B01D000F07AF90F237B60F2
:10069C000223BB600023FB604FF480633B610023AB
:1006AC007B613B1D0221184601F02AFD0346002BFD
:1006BC0001D000F065F900BF4037BD4680BD000099
:1006CC0080B500AF124B134A1A60114B124A5A6094
:1006DC000F4B00229A600E4B0022DA600C4B4FF449
:1006EC0080421A610A4B00225A61094B00229A611E
:1006FC00074B0022DA61064B00221A62044800F014
:10070C00E1FD0346002B01D000F03AF900BF80BD9B
:10071C002800002000540040A086010080B500AFE6
:10072C00174B184A1A60164B4FF482725A60144BCE
:10073C0000229A60124B0022DA60114B00221A61DF
:10074C000F4B00225A610E4B4FF400729A610C4B06
:10075C000822DA610A4B00221A62094B00225A6203
:10076C00074B00229A62064B0A22DA62044801F017
:10077C0055FE0346002B01D000F002F900BF80BDEE
:10078C007C0000200038004080B586B000AF07F137
:10079C00080300221A605A609A60DA603B46002215
:1007AC001A605A601E4B1F4A1A601D4B00225A6079
:1007BC001B4B00229A601A4B4FF6FF72DA60184BF3
:1007CC0000221A61164B00225A61154B00229A61C5
:1007DC00134801F0A7FE0346002B01D000F0D0F81F
:1007EC004FF48053BB6007F1080319460C4801F025
:1007FC00E8FE0346002B01D000F0C2F800233B605A
:10080C0000237B603B461946054802F0A5F80346D9
:10081C00002B01D000F0B4F800BF1837BD4680BDE6
:10082C00D4000020002C014080B500AF114B124ABF
:10083C001A60104B4FF416525A600E4B00229A60FD
:10084C000C4B0022DA600B4B00221A61094B0C2274
:10085C005A61084B00229A61064B0022DA61054866
:10086C0002F0D8F80346002B01D000F089F800BF45
:10087C0080BD00BF1C0100200038014080B588B04D
:10088C0000AF07F1100300221A605A609A60DA6018
:10089C00374B9B69364A43F020039361344B9B6979
:1008AC0003F02003FB60FB68314B9B69304A43F03B
:1008BC00040393612E4B9B6903F00403BB60BB687C
:1008CC002B4B9B692A4A43F008039361284B9B6985
:1008DC0003F008037B607B680022F021254800F0C0
:1008EC00D8FC00224FF48851234800F0D2FC01229E
:1008FC004FF40071204800F0CCFC0F233B61002327
:10090C007B610123BB6107F110031946194800F004
:10091C0025FBF0233B6101237B610023BB61022398
:10092C00FB6107F110031946124800F017FB4FF456
:10093C0040633B61114B7B610023BB6107F11003EA
:10094C0019460D4800F00AFB4FF498533B61012304
:10095C007B610023BB610223FB6107F11003194685
:10096C00054800F0FBFA00BF2037BD4680BD00BF34
:10097C000010024000080140000C01400000111062
:10098C0080B400AF72B600BF00BFFDE780B485B085
:10099C0000AF154B9B69144A43F001039361124B52
:1009AC009B6903F00103BB60BB680F4BDB690E4A0C
:1009BC0043F08053D3610C4BDB6903F080537B60B5
:1009CC007B680A4B5B68FB60FB6823F0E063FB60B1
:1009DC00FB6843F00073FB60044AFB68536000BF84
:1009EC001437BD4680BC7047001002400000014027
:1009FC0080B588B000AF786007F1100300221A6050
:100A0C005A609A60DA607B681B68154A934223D15E
:100A1C00144B9B69134A43F008039361114B9B6978
:100A2C0003F00803FB60FB68C0233B6112237B616E
:100A3C000323FB6107F1100319460B4800F08EFAF3
:100A4C00084BDB69074A43F40013D361054BDB69A0
:100A5C0003F40013BB60BB6800BF2037BD4680BDEC
:100A6C000054004000100240000C014080B588B0DA
:100A7C0000AF786007F1100300221A605A609A6088
:100A8C00DA607B681B681C4A934231D11B4BDB69D3
:100A9C001A4A43F48043D361184BDB6903F4804357
:100AAC00FB60FB68154B9B69144A43F00803936188
:100ABC00124B9B6903F00803BB60BB684FF42043E7
:100ACC003B6102237B610323FB6107F11003194691
:100ADC000B4800F043FA4FF480433B6100237B61E9
:100AEC000023BB6107F110031946054800F036FAE4
:100AFC0000BF2037BD4680BD0038004000100240CA
:100B0C00000C014080B485B000AF78607B681B6836
:100B1C00094A93420BD1094B9B69084A43F4006381
:100B2C009361064B9B6903F40063FB60FB6800BF99
:100B3C001437BD4680BC7047002C014000100240A9
:100B4C0080B588B000AF786007F1100300221A60FE
:100B5C005A609A60DA607B681B681C4A934231D1F8
:100B6C001B4B9B691A4A43F480439361184B9B6956
:100B7C0003F48043FB60FB68154B9B69144A43F0FC
:100B8C0004039361124B9B6903F00403BB60BB68C5
:100B9C004FF400733B6102237B610323FB6107F17C
:100BAC00100319460B4800F0D9F94FF480633B61F0
:100BBC0000237B610023BB6107F110031946054834
:100BCC0000F0CCF900BF2037BD4680BD0038014095
:100BDC00001002400008014080B400AF00BFFDE7E8
:100BEC0080B400AF00BFFDE780B400AF00BFFDE7ED
:100BFC0080B400AF00BFFDE780B400AF00BFFDE7DD
:100C0C0080B400AF00BFBD4680BC704780B400AF5D
:100C1C0000BFBD4680BC704780B400AF00BFBD466E
:100C2C0080BC704780B500AF00F074F800BF80BD89
:100C3C0080B400AF00BFBD4680BC7047FFF7F8FF23
:100C4C000B480C490C4A002302E0D458C45004331E
:100C5C00C4188C42F9D3094A094C002301E01360F3
:100C6C000432A242FBD301F0BBFFFFF7B9FC704783
:100C7C00000000200C000020882C00080C00002034
:100C8C0068010020FEE7000080B500AF084B1B6830
:100C9C00074A43F010031360032000F02BF90F20D8
:100CAC0000F008F8FFF772FE0023184680BD00BF65
:100CBC000020024080B582B000AF7860124B1A68F9
:100CCC00124B1B7819464FF47A73B3FBF1F3B2FB5A
:100CDC00F3F3184600F035F90346002B01D001233D
:100CEC000EE07B680F2B0AD8002279684FF0FF309A
:100CFC0000F00BF9064A7B681360002300E0012327
:100D0C0018460837BD4680BD0000002008000020B2
:100D1C000400002080B400AF054B1B781A46054B2D
:100D2C001B681344034A136000BFBD4680BC704768
:100D3C00080000206401002080B400AF024B1B6847
:100D4C001846BD4680BC70476401002080B584B055
:100D5C0000AF7860FFF7F0FFB8607B68FB60FB6862
:100D6C00B3F1FF3F05D00A4B1B781A46FB681344BE
:100D7C00FB6000BFFFF7E0FF0246BB68D31AFA68BE
:100D8C009A42F7D800BF00BF1037BD4680BD00BFE8
:100D9C000800002080B485B000AF78607B6803F059
:100DAC000703FB600C4BDB68BB60BA684FF6FF03B4
:100DBC001340BB60FB681A02BB68134343F0BF636C
:100DCC0043F40033BB60044ABB68D36000BF1437E4
:100DDC00BD4680BC704700BF00ED00E080B400AFA2
:100DEC00044BDB681B0A03F007031846BD4680BCA6
:100DFC00704700BF00ED00E080B483B000AF034645
:100E0C003960FB7197F90730002B0ADB3B68DAB2CB
:100E1C000C4997F907301201D2B20B4483F8002326
:100E2C000AE03B68DAB20849FB7903F00F03043B94
:100E3C001201D2B20B441A7600BF0C37BD4680BCEF
:100E4C00704700BF00E100E000ED00E080B489B025
:100E5C0000AFF860B9607A60FB6803F00703FB61D0
:100E6C00FB69C3F10703042B28BF0423BB61FB6997
:100E7C000433062B02D9FB69033B00E000237B61A2
:100E8C004FF0FF32BB6902FA03F3DA43BB681A4036
:100E9C007B699A404FF0FF317B6901FA03F3D94328
:100EAC007B680B40134318462437BD4680BC704703
:100EBC0080B582B000AF78607B68013BB3F1807F76
:100ECC0001D301230FE00A4A7B68013B53600F21D9
:100EDC004FF0FF30FFF790FF054B00229A60044B58
:100EEC0007221A60002318460837BD4680BD00BF94
:100EFC0010E000E080B582B000AF78607868FFF752
:100F0C0049FF00BF0837BD4680BD80B586B000AF35
:100F1C000346B9607A60FB7300237B61FFF75EFFC9
:100F2C0078617A68B9687869FFF790FF024697F99B
:100F3C000F3011461846FFF75FFF00BF1837BD464C
:100F4C0080BD80B582B000AF78607868FFF7B0FFE5
:100F5C00034618460837BD4680BD000080B48BB0F0
:100F6C0000AF7860396000237B6200233B6269E14B
:100F7C0001227B6A02FA03F3FB613B681B68FA6986
:100F8C001340BB61BA69FB699A4240F058813B68D7
:100F9C005B689A4A93425ED0984A934275D8984AB5
:100FAC00934258D0964A93426FD8964A934252D065
:100FBC00944A934269D8944A93424CD0924A9342B1
:100FCC0063D8924A934246D0904A93425DD8122BF2
:100FDC002AD8122B59D801A252F823F0631000081A
:100FEC003D1000084F1000089110000897100008E1
:100FFC009710000897100008971000089710000829
:10100C009710000897100008971000089710000818
:10101C009710000897100008971000089710000808
:10102C004510000859100008794A934213D02CE05F
:10103C003B68DB683B6229E03B68DB6804333B625E
:10104C0024E03B68DB6808333B621FE03B68DB68ED
:10105C000C333B621AE03B689B68002B02D10423E3
:10106C003B6213E03B689B68012B05D108233B6274
:10107C007B68FA691A6109E008233B627B68FA69AC
:10108C005A6103E000233B6200E000BFBB69FF2B09
:10109C0001D87B6801E07B6804337B61BB69FF2B63
:1010AC0002D87B6A9B0002E07B6A083B9B003B6199
:1010BC007B691A680F213B6901FA03F3DB431A4081
:1010CC00396A3B6901FA03F31A437B691A603B687E
:1010DC005B6803F08053002B00F0B1804D4B9B6993
:1010EC004C4A43F0010393614A4B9B6903F00103A3
:1010FC00BB60BB68484A7B6A9B08023352F82330BA
:10110C00FB607B6A03F003039B000F2202FA03F3DC
:10111C00DB43FA681340FB607B68404A934213D070
:10112C007B683F4A93420DD07B683E4A934207D07E
:10113C007B683D4A934201D1032306E0042304E07B
:10114C00022302E0012300E000237A6A02F003028A
:10115C0092009340FA681343FB602F497B6A9B080B
:10116C000233FA6841F823203B685B6803F4801370
:10117C00002B06D02D4B9A682C49BB6913438B600E
:10118C0006E02A4B9A68BB69DB43284913408B6005
:10119C003B685B6803F40013002B06D0234BDA6822
:1011AC002249BB691343CB6006E0204BDA68BB696C
:1011BC00DB431E491340CB603B685B6803F4003390
:1011CC00002B06D0194B5A681849BB6913434B6066
:1011DC0006E0164B5A68BB69DB43144913404B605D
:1011EC003B685B6803F48033002B21D00F4B1A68EB
:1011FC000E49BB6913430B6021E000BF00003210A5
:10120C00000031100000221000002110000012100C
:10121C0000001110001002400000014000080140C5
:10122C00000C01400010014000140140000401407A
:10123C000B4B1A68BB69DB43094913400B607B6A93
:10124C0001337B623B681A687B6A22FA03F3002B3A
:10125C007FF48EAE00BF00BF2C37BD4680BC7047FC
:10126C000004014080B485B000AF78600B467B80F1
:10127C007B689A687B881340002B02D00123FB7398
:10128C0001E00023FB73FB7B18461437BD4680BC82
:10129C00704780B483B000AF78600B467B801346F8
:1012AC007B707B78002B03D07A887B681A6103E013
:1012BC007B881A047B681A6100BF0C37BD4680BC62
:1012CC007047000080B584B000AF78607B68002B5D
:1012DC0001D101232BE17B6893F83D30DBB2002B6D
:1012EC0006D17B68002283F83C207868FFF780FBEE
:1012FC007B68242283F83D207B681B681A687B6816
:10130C001B6822F001021A607B681B681A687B68F4
:10131C001B6842F400421A607B681B681A687B6881
:10132C001B6822F400421A6001F032F8F8607B6806
:10133C005B68814A934207D8FB68804A934294BF0A
:10134C0001230023DBB206E0FB687D4A934294BF85
:10135C0001230023DBB2002B01D00123E7E0FB6863
:10136C00784AA2FB03239B0CBB607B681B685B6801
:10137C0023F03F017B681B68BA680A435A607B689C
:10138C001B681B6A23F03F017B685B686A4A9342C7
:10139C0002D8BB68013309E0BB684FF4967202FBBC
:1013AC0003F3694AA2FB03239B0901337A68126891
:1013BC000B4313627B681B68DB6923F44F4222F0FA
:1013CC00FF027B685B685C498B4219D8FB68591E2D
:1013DC007B685B685B00B1FBF3F3591C40F6FC7354
:1013EC000B40002B0AD0FB68591E7B685B685B00C6
:1013FC00B1FBF3F30133C3F30B0351E004234FE0D0
:10140C007B689B68002B11D1FB68581E7B68596860
:10141C000B465B000B44B0FBF3F30133C3F30B033C
:10142C00002B0CBF01230023DBB212E0FB68581E1B
:10143C007B6859680B469B000B4499000B44B0FB2E
:10144C00F3F30133C3F30B03002B0CBF0123002375
:10145C00DBB2002B01D0012322E07B689B68002BC0
:10146C000ED1FB68581E7B6859680B465B000B4419
:10147C00B0FBF3F30133C3F30B0343F400430FE06E
:10148C00FB68581E7B6859680B469B000B449900FF
:10149C000B44B0FBF3F30133C3F30B0343F44043AE
:1014AC00796809681343CB617B681B681B6823F060
:1014BC00C0017B68DA697B681B6A1A437B681B680E
:1014CC000A431A607B681B689B6823F4034323F070
:1014DC00FF037A6811697A68D26811437A681268D6
:1014EC000B4393607B681B68DB6823F0FF017B6810
:1014FC005A697B689B691A437B681B680A43DA60EC
:10150C007B681B681A687B681B6842F001021A60D2
:10151C007B6800221A647B68202283F83D207B685C
:10152C0000221A637B68002283F83E2000231846B1
:10153C001037BD4680BD00BFA08601007F841E0011
:10154C00FF083D0083DE1B43D34D621080B588B08D
:10155C0002AFF8607A601A460B467B8113463B81DA
:10156C00FFF7EAFB7861FB6893F83D30DBB2202B88
:10157C0040F0E0807B690093192301227049F868E0
:10158C0000F064F90346002B01D00223D3E0FB6882
:10159C0093F83C30012B01D10223CCE0FB680122F3
:1015AC0083F83C20FB681B681B6803F00103012BCC
:1015BC0007D0FB681B681A68FB681B6842F00102C5
:1015CC001A60FB681B681A68FB681B6822F40062CF
:1015DC001A60FB68212283F83D20FB68102283F8F7
:1015EC003E20FB6800221A64FB687A685A62FB682A
:1015FC003A895A85FB685B8D9AB2FB681A85FB6841
:10160C00504ADA6279897B693A6AF86800F09CF88A
:10161C000346002B01D001238DE000233B61FB68C6
:10162C001B685B693B61FB681B689B693B613B69A1
:10163C0066E07A69396AF86800F022FA0346002BF2
:10164C000DD0FB681B6C042B07D1FB681B681A6858
:10165C00FB681B6842F400721A6001236BE0FB68A4
:10166C005B6A1A78FB681B681A61FB685B6A5A1C18
:10167C00FB685A62FB685B8D9BB2013B9AB2FB68BC
:10168C005A85FB681B8D013B9AB2FB681A85FB6877
:10169C001B685B6903F00403042B1BD1FB681B8DD7
:1016AC00002B17D0FB685B6A1A78FB681B681A6101
:1016BC00FB685B6A5A1CFB685A62FB685B8D9BB2C9
:1016CC00013B9AB2FB685A85FB681B8D013B9AB2B1
:1016DC00FB681A857A69396AF86800F019FA0346CA
:1016EC00002B0DD0FB681B6C042B07D1FB681B680F
:1016FC001A68FB681B6842F400721A6001231AE036
:10170C00FB681B8D002B94D1FB681B681A68FB6867
:10171C001B6842F400721A60FB68202283F83D209B
:10172C00FB68002283F83E20FB68002283F83C20F3
:10173C00002300E0022318461837BD4680BD00BFC9
:10174C00020010000000FFFF80B588B002AFF86007
:10175C007A603B600B467B81FB68DB6A7B617B6953
:10176C00082B06D07B69012B03D07B6913F5803FD6
:10177C0008D1FB681B681A68FB681B6842F480720E
:10178C001A600BE0FB681B6B122B07D1FB681B6804
:10179C001A68FB681B6842F480721A603B680093FD
:1017AC007B6800224FF00111F86800F04FF80346F7
:1017BC00002B0DD0FB681B681B6803F48073B3F51A
:1017CC00807F03D1FB684FF400721A64032335E069
:1017DC00FB681B69B3F5804F08D17B89DBB21A46D5
:1017EC00FB681B6802F0FE021A611BE07B89DB11AF
:1017FC00DBB203F00603DBB263F00F03DAB2FB6873
:10180C001B681A613B687A680E49F86800F098F812
:10181C000346002B01D0012310E07B89DAB2FB6870
:10182C001B681A613B687A680749F86800F088F809
:10183C000346002B01D0012300E000231846183783
:10184C00BD4680BD080001000200010080B584B0D7
:10185C0000AFF860B9603B601346FB7148E03B6831
:10186C00B3F1FF3F44D0FFF767FA0246BB69D31AC6
:10187C003A689A4202D33B68002B39D1BB681B0CE7
:10188C00DBB2012B0DD1FB681B685B69DA43BB68CB
:10189C0013409BB2002B0CBF01230023DBB21A4672
:1018AC000CE0FB681B689B69DA43BB6813409BB276
:1018BC00002B0CBF01230023DBB21A46FB799A42A2
:1018CC0016D1FB6800221A63FB68202283F83D20A6
:1018DC00FB68002283F83E20FB681B6C43F020025F
:1018EC00FB681A64FB68002283F83C20012323E088
:1018FC00BB681B0CDBB2012B0DD1FB681B685B6951
:10190C00DA43BB6813409BB2002B0CBF01230023AE
:10191C00DBB21A460CE0FB681B689B69DA43BB68B8
:10192C0013409BB2002B0CBF01230023DBB21A46E1
:10193C00FB799A4293D0002318461037BD4680BDE0
:10194C0080B584B000AFF860B9607A603B6071E03C
:10195C00FB681B685B6903F48063B3F5806F23D16C
:10196C00FB681B681A68FB681B6842F400721A60FB
:10197C00FB681B686FF480625A61FB6800221A6373
:10198C00FB68202283F83D20FB68002283F83E2070
:10199C00FB681B6C43F00402FB681A64FB680022B2
:1019AC0083F83C20012367E07B68B3F1FF3F41D013
:1019BC00FFF7C2F902463B68D31A7A689A4202D3FF
:1019CC007B68002B36D1BB681B0CDBB2012B0CD116
:1019DC00FB681B685B69DA43BB6813409BB2002B46
:1019EC0014BF01230023DBB20BE0FB681B689B696F
:1019FC00DA43BB6813409BB2002B14BF01230023B6
:101A0C00DBB2002B16D0FB6800221A63FB68202285
:101A1C0083F83D20FB68002283F83E20FB681B6C9A
:101A2C0043F02002FB681A64FB68002283F83C2018
:101A3C00012321E0BB681B0CDBB2012B0CD1FB6832
:101A4C001B685B69DA43BB6813409BB2002B14BF65
:101A5C0001230023DBB20BE0FB681B689B69DA43B4
:101A6C00BB6813409BB2002B14BF01230023DBB2D5
:101A7C00002B7FF46DAF002318461037BD4680BD98
:101A8C0080B584B000AFF860B9607A6034E0F86873
:101A9C0000F086F80346002B01D0012334E0BB682C
:101AAC00B3F1FF3F28D0FFF747F902467B68D31A02
:101ABC00BA689A4202D3BB68002B1DD1FB681B6825
:101ACC005B6903F08003802B16D0FB6800221A633D
:101ADC00FB68202283F83D20FB68002283F83E201F
:101AEC00FB681B6C43F02002FB681A64FB68002245
:101AFC0083F83C20012307E0FB681B685B6903F05B
:101B0C008003802BC3D1002318461037BD4680BDFF
:101B1C0080B584B000AFF860B9607A6034E0F868E2
:101B2C0000F03EF80346002B01D0012334E0BB68E3
:101B3C00B3F1FF3F28D0FFF7FFF802467B68D31ABA
:101B4C00BA689A4202D3BB68002B1DD1FB681B6894
:101B5C005B6903F00403042B16D0FB6800221A63A4
:101B6C00FB68202283F83D20FB68002283F83E208E
:101B7C00FB681B6C43F02002FB681A64FB680022B4
:101B8C0083F83C20012307E0FB681B685B6903F0CA
:101B9C000403042BC3D1002318461037BD4680BD67
:101BAC0080B483B000AF78607B681B685B6903F41A
:101BBC008063B3F5806F1BD17B681B686FF4806208
:101BCC005A617B6800221A637B68202283F83D20CF
:101BDC007B68002283F83E207B681B6C43F0040278
:101BEC007B681A647B68002283F83C20012300E0A8
:101BFC00002318460C37BD4680BC704780B586B0B4
:101C0C0000AF78607B68002B01D1012372E27B6806
:101C1C001B6803F00103002B00F08780924B5B687C
:101C2C0003F00C03042B0CD08F4B5B6803F00C03FC
:101C3C00082B12D18C4B5B6803F48033B3F5803FD7
:101C4C000BD1894B1B6803F40033002B6CD07B68E1
:101C5C005B68002B68D101234CE27B685B68B3F5B1
:101C6C00803F06D1804B1B687F4A43F4803313605E
:101C7C002EE07B685B68002B0CD17B4B1B687A4A8F
:101C8C0023F480331360784B1B68774A23F480234A
:101C9C0013601DE07B685B68B3F5A02F0CD1724B11
:101CAC001B68714A43F4802313606F4B1B686E4AA8
:101CBC0043F4803313600BE06B4B1B686A4A23F4CC
:101CCC0080331360684B1B68674A23F480231360CE
:101CDC007B685B68002B13D0FFF72EF8386108E0A7
:101CEC00FFF72AF802463B69D31A642B01D9032368
:101CFC0000E25D4B1B6803F40033002BF0D014E0C2
:101D0C00FFF71AF8386108E0FFF716F802463B694E
:101D1C00D31A642B01D90323ECE1534B1B6803F456
:101D2C000033002BF0D100E000BF7B681B6803F090
:101D3C000203002B63D04C4B5B6803F00C03002BAD
:101D4C000BD0494B5B6803F00C03082B1CD1464BA2
:101D5C005B6803F48033002B16D1434B1B6803F0F4
:101D6C000203002B05D07B681B69012B01D00123DA
:101D7C00C0E13D4B1B6823F0F8027B685B69DB001C
:101D8C00394913430B603AE07B681B69002B20D068
:101D9C00364B01221A60FEF7CFFF386108E0FEF7E0
:101DAC00CBFF02463B69D31A022B01D90323A1E1D5
:101DBC002D4B1B6803F00203002BF0D02A4B1B6841
:101DCC0023F0F8027B685B69DB00274913430B6047
:101DDC0015E0264B00221A60FEF7AEFF386108E0D2
:101DEC00FEF7AAFF02463B69D31A022B01D9032343
:101DFC0080E11D4B1B6803F00203002BF0D17B68C4
:101E0C001B6803F00803002B3AD07B689B69002BFE
:101E1C0019D0174B01221A60FEF78EFF386108E0CB
:101E2C00FEF78AFF02463B69D31A022B01D9032322
:101E3C0060E10D4B5B6A03F00203002BF0D0012034
:101E4C0000F0CEFA1CE00A4B00221A60FEF774FF79
:101E5C0038610FE0FEF770FF02463B69D31A022B84
:101E6C0008D9032346E100BF0010024000004242A3
:101E7C0080044242924B5B6A03F00203002BE9D1CF
:101E8C007B681B6803F00403002B00F0A680002382
:101E9C00FB758B4BDB6903F08053002B0DD1884B0A
:101EAC00DB69874A43F08053D361854BDB6903F0D0
:101EBC008053BB60BB680123FB75824B1B6803F42A
:101ECC008073002B18D17F4B1B687E4A43F48073C0
:101EDC001360FEF731FF386108E0FEF72DFF024674
:101EEC003B69D31A642B01D9032303E1754B1B689F
:101EFC0003F48073002BF0D07B68DB68012B06D1D8
:101F0C006F4B1B6A6E4A43F0010313622DE07B6832
:101F1C00DB68002B0CD16A4B1B6A694A23F0010366
:101F2C001362674B1B6A664A23F0040313621CE0BE
:101F3C007B68DB68052B0CD1614B1B6A604A43F054
:101F4C00040313625E4B1B6A5D4A43F00103136288
:101F5C000BE05B4B1B6A5A4A23F001031362584B8C
:101F6C001B6A574A23F0040313627B68DB68002B5F
:101F7C0015D0FEF7E1FE38610AE0FEF7DDFE024601
:101F8C003B69D31A41F28832934201D90323B1E061
:101F9C004B4B1B6A03F00203002BEED014E0FEF750
:101FAC00CBFE38610AE0FEF7C7FE02463B69D31A46
:101FBC0041F28832934201D903239BE0404B1B6AC8
:101FCC0003F00203002BEED1FB7D012B05D13C4B22
:101FDC00DB693B4A23F08053D3617B68DB69002BC0
:101FEC0000F08780364B5B6803F00C03082B61D044
:101FFC007B68DB69022B46D1334B00221A60FEF75B
:10200C009BFE386108E0FEF797FE02463B69D31A47
:10201C00022B01D903236DE0294B1B6803F00073DD
:10202C00002BF0D17B681B6AB3F5803F08D1244BA1
:10203C005B6823F400327B689B68214913434B6037
:10204C001F4B5B6823F474127B68196A7B685B6AAC
:10205C000B431B4913434B601B4B01221A60FEF7C9
:10206C006BFE386108E0FEF767FE02463B69D31A47
:10207C00022B01D903233DE0114B1B6803F00073C5
:10208C00002BF0D035E0104B00221A60FEF754FE06
:10209C00386108E0FEF750FE02463B69D31A022B6A
:1020AC0001D9032326E0064B1B6803F00073002BB9
:1020BC00F0D11EE07B68DB69012B07D1012319E00D
:1020CC000010024000700040600042420B4B5B6805
:1020DC00FB60FB6803F480327B681B6A9A4206D172
:1020EC00FB6803F470127B685B6A9A4201D001238F
:1020FC0000E0002318461837BD4680BD0010024092
:10210C0080B584B000AF786039607B68002B01D15A
:10211C000123D0E06A4B1B6803F007033A689A422C
:10212C0010D9674B1B6823F0070265493B681343C2
:10213C000B60634B1B6803F007033A689A4201D0AB
:10214C000123B8E07B681B6803F00203002B20D04E
:10215C007B681B6803F00403002B05D0594B5B68AC
:10216C00584A43F4E06353607B681B6803F0080330
:10217C00002B05D0534B5B68524A43F460535360B9
:10218C00504B5B6823F0F0027B689B684D4913430E
:10219C004B607B681B6803F00103002B40D07B680D
:1021AC005B68012B07D1474B1B6803F40033002BF2
:1021BC0015D101237FE07B685B68022B07D1414B73
:1021CC001B6803F00073002B09D1012373E03D4B16
:1021DC001B6803F00203002B01D101236BE0394B88
:1021EC005B6823F003027B685B68364913434B60E2
:1021FC00FEF7A2FDF8600AE0FEF79EFD0246FB68C2
:10220C00D31A41F28832934201D9032353E02D4B68
:10221C005B6803F00C027B685B689B009A42EBD115
:10222C00274B1B6803F007033A689A4210D2244BE1
:10223C001B6823F0070222493B6813430B60204BB9
:10224C001B6803F007033A689A4201D0012332E07D
:10225C007B681B6803F00403002B08D0194B5B68E8
:10226C0023F4E0627B68DB68164913434B607B68A0
:10227C001B6803F00803002B09D0124B5B6823F496
:10228C0060527B681B69DB000E4913434B6000F006
:10229C0021F802460B4B5B681B0903F00F030A493C
:1022AC00CB5C22FA03F3094A1360094B1B681846EE
:1022BC00FEF700FD002318461037BD4680BD00BF59
:1022CC000020024000100240542C000800000020A6
:1022DC000400002080B487B000AF0023FB60002313
:1022EC00BB6000237B6100237B6000233B611E4BA2
:1022FC005B68FB60FB6803F00C03042B02D0082B1B
:10230C0003D027E0194B3B6127E0FB689B0C03F0E3
:10231C000F03174AD35C7B60FB6803F48033002BFC
:10232C0010D0114B5B685B0C03F00103114AD35CBA
:10233C00BB607B680D4A03FB02F2BB68B2FBF3F394
:10234C007B6104E07B680C4A02FB03F37B617B69D5
:10235C003B6102E0054B3B6100BF3B6918461C37F3
:10236C00BD4680BC704700BF0010024000127A00CE
:10237C006C2C00087C2C000800093D0080B400AFD8
:10238C00024B1B681846BD4680BC704700000020FD
:10239C0080B500AFFFF7F2FF0246054B5B681B0AE6
:1023AC0003F007030349CB5C22FA03F3184680BD04
:1023BC0000100240642C000880B500AFFFF7DEFF70
:1023CC000246054B5B68DB0A03F007030349CB5C51
:1023DC0022FA03F3184680BD00100240642C00085A
:1023EC0080B485B000AF78600A4B1B680A4AA2FB28
:1023FC0003235B0A7A6802FB03F3FB6000BFFB68F4
:10240C005A1EFA60002BF9D100BF00BF1437BD462D
:10241C0080BC704700000020D34D621080B582B0A4
:10242C0000AF78607B68002B01D1012376E07B68DC
:10243C005B6A002B08D17B685B68B3F5827F09D09F
:10244C007B680022DA6105E07B6800221A617B68F8
:10245C0000225A617B6800229A627B6893F85130A3
:10246C00DBB2002B06D17B68002283F85020786801
:10247C00FEF7FCFA7B68022283F851207B681B680C
:10248C001A687B681B6822F040021A607B685B68E4
:10249C0003F482727B689B6803F404431A437B68E1
:1024AC00DB6803F400631A437B681B6903F00203C7
:1024BC001A437B685B6903F001031A437B689B69D1
:1024CC0003F400731A437B68DB6903F038031A4387
:1024DC007B681B6A03F0800342EA03017B689B6AFA
:1024EC0003F400527B681B680A431A607B689B6983
:1024FC001A0C7B681B6802F004025A607B681B682C
:10250C00DA697B681B6822F40062DA617B6800225E
:10251C005A657B68012283F851200023184608373E
:10252C00BD4680BD80B582B000AF78607B68002B63
:10253C0001D1012341E07B6893F83D30DBB2002BE5
:10254C0006D17B68002283F83C207868FEF7DAFA23
:10255C007B68022283F83D207B681A687B68043311
:10256C001946104600F0F4F87B68012283F84620E7
:10257C007B68012283F83E207B68012283F83F2090
:10258C007B68012283F840207B68012283F841207C
:10259C007B68012283F842207B68012283F8432068
:1025AC007B68012283F844207B68012283F8452054
:1025BC007B68012283F83D20002318460837BD466E
:1025CC0080BD80B584B000AF786039600023FB73A8
:1025DC007B6893F83C30012B01D10223B4E07B687B
:1025EC00012283F83C207B68022283F83D207B6823
:1025FC001B689B68BB60BB6823F07703BB60BB6840
:10260C0023F47F43BB607B681B68BA689A603B68A5
:10261C001B68B3F5005F3ED0B3F5005F00F2878016
:10262C00B3F5805F00F08680B3F5805F7FD8702BA8
:10263C001AD0702B7BD8602B50D0602B77D8502BB6
:10264C003CD0502B73D8402B58D0402B6FD8302B0C
:10265C0064D0302B6BD8202B60D0202B67D8002B6C
:10266C005CD0102B5AD062E07B6818683B68996884
:10267C003B685A683B68DB6800F04FF97B681B6865
:10268C009B68BB60BB6843F07703BB607B681B68CF
:10269C00BA689A604FE07B6818683B6899683B6839
:1026AC005A683B68DB6800F038F97B681B689A68ED
:1026BC007B681B6842F480429A603CE07B68186837
:1026CC003B6859683B68DB681A4600F0AFF87B68DA
:1026DC001B685021184600F006F92CE07B6818683E
:1026EC003B6859683B68DB681A4600F0CDF87B689C
:1026FC001B686021184600F0F6F81CE07B6818682F
:10270C003B6859683B68DB681A4600F08FF87B68B9
:10271C001B684021184600F0E6F80CE07B681A684C
:10272C003B681B681946104600F0DDF803E00123F6
:10273C00FB7300E000BF7B68012283F83D207B68BF
:10274C00002283F83C20FB7B18461037BD4680BD29
:10275C0080B485B000AF786039607B681B68FB6023
:10276C007B682F4A93420BD07B68B3F1804F07D024
:10277C007B682C4A934203D07B682B4A934208D146
:10278C00FB6823F07003FB603B685B68FA681343DB
:10279C00FB607B68224A93420BD07B68B3F1804F7D
:1027AC0007D07B681F4A934203D07B681E4A934232
:1027BC0008D1FB6823F44073FB603B68DB68FA6864
:1027CC001343FB60FB6823F080023B685B69134397
:1027DC00FB607B68FA681A603B689A687B68DA620F
:1027EC003B681A687B689A627B680D4A934203D1F6
:1027FC003B681A697B681A637B6801225A617B68A3
:10280C001B6903F00103002B05D07B681B6923F0C7
:10281C0001027B681A6100BF1437BD4680BC70474B
:10282C00002C0140000400400008004080B487B038
:10283C0000AFF860B9607A60FB681B6A7B61FB686B
:10284C001B6A23F00102FB681A62FB689B693B61FF
:10285C003B6923F0F0033B617B681B013A6913432E
:10286C003B617B6923F00A037B617A69BB68134384
:10287C007B61FB683A699A61FB687A691A6200BFEE
:10288C001C37BD4680BC704780B487B000AFF86081
:10289C00B9607A60FB681B6A7B61FB681B6A23F07A
:1028AC001002FB681A62FB689B693B613B6923F46D
:1028BC0070433B617B681B033A6913433B617B6943
:1028CC0023F0A0037B61BB681B017A6913437B6116
:1028DC00FB683A699A61FB687A691A6200BF1C3717
:1028EC00BD4680BC704780B485B000AF786039605D
:1028FC007B689B68FB60FB6823F07003FB603A68A5
:10290C00FB68134343F00703FB607B68FA689A602B
:10291C0000BF1437BD4680BC704780B487B000AF91
:10292C00F860B9607A603B60FB689B687B617B698F
:10293C0023F47F437B613B681A027B681A43BB68B4
:10294C0013437A6913437B61FB687A699A6000BF11
:10295C001C37BD4680BC704780B485B000AF786032
:10296C0039607B6893F83C30012B01D1022346E09F
:10297C007B68012283F83C207B68022283F83D208F
:10298C007B681B685B68FB607B681B689B68BB6033
:10299C00FB6823F07003FB603B681B68FA68134309
:1029AC00FB607B681B68FA685A607B681B68164A78
:1029BC0093420ED07B681B68B3F1804F09D07B68C3
:1029CC001B68124A934204D07B681B68104A9342DE
:1029DC000CD1BB6823F08003BB603B685B68BA68B2
:1029EC001343BB607B681B68BA689A607B680122E2
:1029FC0083F83D207B68002283F83C200023184696
:102A0C001437BD4680BC7047002C014000040040C8
:102A1C000008004080B582B000AF78607B68002B66
:102A2C0001D1012342E07B6893F84130DBB2002BEB
:102A3C0006D17B68002283F840207868FEF780F886
:102A4C007B68242283F841207B681B68DA687B68EA
:102A5C001B6822F40052DA60786800F02BF87B686F
:102A6C001B681A697B681B6822F490421A617B68A8
:102A7C001B685A697B681B6822F02A025A617B68C2
:102A8C001B68DA687B681B6842F40052DA607B686A
:102A9C0000225A647B68202283F841207B68202224
:102AAC0083F842207B6800225A63002318460837BB
:102ABC00BD4680BD80B584B000AF78607B681B6874
:102ACC001B6923F440517B68DA687B681B680A43F6
:102ADC001A617B689A687B681B691A437B685B691F
:102AEC001343BB607B681B68DB6823F4B05323F093
:102AFC000C037A681268B9680B43D3607B681B6857
:102B0C005B6923F440717B689A697B681B680A4394
:102B1C005A617B681B682C4A934203D1FFF74CFC2B
:102B2C00F86002E0FFF734FCF860FA6813469B008B
:102B3C0013449A001A447B685B689B00B2FBF3F366
:102B4C00224AA2FB03235B091901FA6813469B0076
:102B5C0013449A001A447B685B689B00B2FBF3F247
:102B6C001A4BA3FB02035B09642000FB03F3D31A8B
:102B7C001B013233154AA2FB03235B0903F0F0035C
:102B8C001944FA6813469B0013449A001A447B6854
:102B9C005B689B00B2FBF3F20C4BA3FB02035B09DB
:102BAC00642000FB03F3D31A1B013233074AA2FB48
:102BBC0003235B0903F00F027B681B680A449A60CD
:102BCC0000BF1037BD4680BD003801401F85EB515A
:102BDC0003460244934200D1704703F8011BF9E706
:102BEC0070B500260C4D0D4C641BA410A64209D1E7
:102BFC0000F01AF800260A4D0A4C641BA410A642D9
:102C0C0005D170BD55F8043B98470136EEE755F8F1
:102C1C00043B98470136F2E7802C0008802C000812
:102C2C00802C0008842C0008F8B500BFF8BC08BC48
:102C3C009E467047F8B500BFF8BC08BC9E4670476E
:102C4C004B45593A20000000000000000000000035
:102C5C000102030406070809000000000102030436
:102C6C0002030405060708090A0B0C0D0E0F1010C1
:042C7C000102000051
:042C80003101000816
:042C84000D01000836
:0C2C880000127A001000000001000000A3
:0400000508000C499A
:00000001FF
