:020000040800F2
:10000000A00B002089010008E7170008051400086C
:10001000E517000837040008311D00080000000043
:100020000000000000000000000000002D1B000880
:100030003904000800000000E91700082F1B000821
:10004000A3010008A3010008A3010008A301000800
:10005000A3010008A3010008A3010008A3010008F0
:10006000A3010008A3010008A3010008A3010008E0
:10007000A3010008A3010008A3010008A3010008D0
:10008000A3010008A3010008A3010008A3010008C0
:10009000A3010008A3010008A3010008A3010008B0
:1000A000A3010008A3010008A3010008A3010008A0
:1000B000A3010008A3010008A3010008A301000890
:1000C000A3010008A3010008A3010008A301000880
:1000D000A3010008A3010008A3010008A301000870
:1000E000A3010008A3010008A301000800F002F822
:1000F00000F03AF80AA090E8000C82448344AAF188
:100100000107DA4501D100F02FF8AFF2090EBAE885
:100110000F0013F0010F18BFFB1A43F0010318473B
:10012000FC4300001C440000103A24BF78C878C18A
:10013000FAD8520724BF30C830C144BF04680C60ED
:10014000704700000023002400250026103A28BF35
:1001500078C1FBD8520728BF30C148BF0B60704739
:100160001FB51FBD10B510BD00F030F91146FFF7E7
:10017000F7FF02F0A5F800F04EF903B4FFF7F2FF25
:1001800003BC00F051F900000948804709480047C6
:10019000FEE7FEE7FEE7FEE7FEE7FEE7FEE7FEE737
:1001A000FEE7FEE704480549054A064B7047000094
:1001B000911B0008ED000008A0050020A00B002006
:1001C000A0070020A007002010B54C1084EA5304BB
:1001D00004D54042C1F1000138BF491E1B4204D57D
:1001E0005242C3F1000338BF5B1E00F043F814F025
:1001F000804F04D04042C1F1000138BF491E14F0C5
:10020000004F04D05242C3F1000338BF5B1E10BD43
:1002100002F0FF0343EA032242EA024200F0AEB8D2
:100220004FF0000200B5134694469646203922BF8F
:10023000A0E80C50A0E80C50B1F12001BFF4F7AFDA
:10024000090728BFA0E80C5048BF0CC05DF804EBBC
:10025000890028BF40F8042B08BF704748BF20F82A
:10026000022B11F0804F18BF00F8012B7047704728
:100270007047704753EA020C00F069802DE9F04B9B
:100280004FF00006002B1FBFB3FA83F503FA05F405
:1002900024FA05F65E4012BF1643B2FA82F502FA5E
:1002A00005F4C5F120051EBF22FA05FC44EA0C0442
:1002B000203556EA044C4FEA144418BF641C4FF032
:1002C00000084FF00009904271EB030C39D300296C
:1002D00019BFB1FA81F701FA07F6B0FA80F700FA10
:1002E00007F6C7F120071EBF20FA07FC46EA0C06F6
:1002F0002037B6FBF4FCA7EB0507103F07F01F0BF8
:10030000CBF120060CFA0BFB2CFA06F644BFB346E1
:100310000026202FA4BF5E464FF0000B5BEA060CC0
:1003200008BF4FF0010B19EB0B09ABFB027C48EB4C
:100330000608C01B06FB02CC0BFB03CC71EB0C01C7
:10034000C1E70B46024641464846BDE8F08B13B56F
:100350004FF000004FF00001AFF30080BDE81C40FB
:10036000704710B500F02AF8006810BD10B50446BB
:1003700000F024F8046010BD4FF000020429C0F022
:10038000128010F0030C3FF44DAFCCF1040CBCF123
:10039000020F18BF00F8012BA8BF20F8022BA1EB19
:1003A0000C01FFF73FBF5FEAC17C24BF00F8012BBF
:1003B00000F8012B48BF00F8012B70470048704738
:1003C0004005002000487047400500207546FFF7B3
:1003D000F9FFAE4605006946534620F00700854602
:1003E00018B020B5FFF7DEFEBDE820404FF0000654
:1003F0004FF000074FF000084FF0000B21F007010D
:10040000AC46ACE8C009ACE8C009ACE8C009ACE84F
:10041000C0098D46704710B50446AFF300802046F2
:10042000BDE81040FFF7A9BE01491820ABBEFEE7AA
:10043000260002007047FEE77047000070B50446D2
:1004400000F008F90546601C02D004480078044416
:1004500000F000F9401BA042FAD370BD3400002028
:100460002DE9F84FDFF8B8910024A9F1040B2346D9
:100470000F2709F1040AABF1040EC9E00125A540DC
:100480002A40AA427DD1674ED1F804C0ACEB0608E1
:10049000B44532D014DCBCF1030F3AD009DCBCF116
:1004A000000F2AD0BCF1010F1CD0BCF1020F31D1DA
:1004B0001DE0BCF1110F17D0BCF1120F2AD119E0C9
:1004C000B8F5881F19D006DCB8F5803F15D0B8F50F
:1004D000801F1FD111E0B8F5001F0ED0B8F5041F22
:1004E00018D10AE0CB6815E0CB681B1D12E0CB6881
:1004F00008330FE0CB680C330CE08B682BB1012B79
:100500004FF0080303D0456104E0042302E00561D5
:1005100000E00023FF2A01D8064601E000F10406AE
:100520004FEA840501D9A5F12005D6F8008007FA25
:1005300005FC28EA0C0803FA05F548EA0508C6F8A0
:1005400000804D68ED0062D5374DAE6946F001067A
:10055000AE61AD6924F0030605F001050095334D49
:1005600006EB050CDCF80850A607360F07FA06F86C
:1005700025EA0805DFF8B880404503D14FF00008B0
:1005800017E044E0DFF8AC80404502D14FF00108AD
:100590000FE0DFF8A480404502D14FF0020808E0E8
:1005A000DFF89880404502D14FF0030801E04FF09A
:1005B000040808FA06F848EA0508CCF808804D68EF
:1005C000D9F80060ED024D4601D5164300E0964390
:1005D0002E604D68DAF80060AD02554601D516432D
:1005E00000E096432E604D68DBF80060AD035D4689
:1005F00001D5164300E096432E604D68DEF800609A
:10060000ED03754601D5164300E096432E60641C49
:100610000D682A46E5407FF431AFBDE8F88F000051
:1006200008040140000011100010024000000140C9
:1006300000080140000C014000100140001401407E
:100640008068084000D0012070470AB101617047FE
:100650000904FBE70148806870470000340000206F
:1006600070B5040025D094F83D00002520B984F829
:100670003C50204600F004FA242084F83D00206815
:10068000016821F0010101602068016841F4004126
:1006900001602068016821F40041016000F03EFB28
:1006A0004D4A6168914201D84C4900E04C4988426A
:1006B00001D2012070BD4B492368B0FBF1F15E68A7
:1006C00026F03F060E435E606368934206D94FF4FE
:1006D000967359434FF47A73B1FBF3F12368491CC5
:1006E0001E6A26F03F06314319626168914210D8B4
:1006F0004900401EB0FBF1F2521CC2F30B02042A67
:1007000001D2042022E0B0FBF1F0401CC0F30B004A
:100710001CE0A268F2B301EBC10303EB0116431E18
:10072000B3FBF6F35B1C43F480431B0549D092B343
:1007300001EBC10202EB0111401EB0FBF1F0401CC5
:10074000C0F30B0040F4804040F400402168CA69C7
:100750004CF6FF739A431043C861D4E90710014374
:100760002068026822F0C00211430160D4E903014D
:1007700001432068826848F2FF339A431143816045
:10078000D4E9050108432168CA6822F0FF0210433A
:10079000C86001E00EE016E02068016841F0010148
:1007A00001602564202084F83D00256384F83E50D4
:1007B000002070BD01EB4106431EB3FBF6F35B1C4A
:1007C000B3E70120C2E701EB4101401EB0FBF1F0AD
:1007D000401CC0F30B00B7E7A086010080841E0018
:1007E00000093D0040420F002DE9FF4F81B08946CE
:1007F0000446FFF72FFF054694F83D004FF0000830
:1008000020287DD11923012250492046009500F06F
:100810008BFE002874D194F83C00012870D0012090
:1008200084F83C0020680168C90703D1016841F0E1
:10083000010101602068016821F400610160242049
:1008400084F83D00002626644148E0624FF0011B19
:1008500020272068016841F4807101600095002222
:1008600059462046049B00F05FFE50B120680068A6
:10087000C00502D54FF400702064032005B0BDE828
:10088000F08F216809F0FE000861FFF7E3FE2168A0
:10089000054648694969C0F34000C1F380214FF023
:1008A000A00A0FE0FFF7D6FE411B0498814200D852
:1008B00008B984F83DA0216848694969C0F340003F
:1008C000C1F3802194F83D20A02A02D008B9002964
:1008D000E8D084F83D7020684169C943890716D47F
:1008E000016841F400710160206841698069192341
:1008F000012216492046009500F016FEB8B900E026
:1009000021E084F83D7084F83C600020B6E701687F
:1009100041F40071016021686FF48060486119231F
:1009200001220A492046009500F0FEFD08B1012091
:10093000A4E7039808F1010880458AD384F83D7044
:1009400084F83C60F3E7022098E700000200100002
:100950000000FFFF2DE9F84F1F4690468A460446E7
:10096000DDF82890FFF776FE054694F83D00202834
:100970007FD11923012240492046009500F0D4FD83
:10098000002876D194F83C00012872D0012084F828
:100990003C0020680168C90703D1016841F00101EA
:1009A00001602068016821F400610160212084F861
:1009B0003D00102084F83E0000262664C4F8248000
:1009C0006785608D20852D48E0622B464A4651465A
:1009D000204600F02FFD90B92068416980690090A1
:1009E00036E02A464946204600F044FE50B1206CCD
:1009F000042804D12068016841F4007101600120DD
:100A0000BDE8F88F606A216800780861606A401C60
:100A10006062618D491E6185218D491E89B22185E3
:100A200022685369DB435B070BD451B10078106136
:100A3000606A401C6062608D401E6085208D401E93
:100A400020852A464946204600F042FD0028CED1A6
:100A5000208D0028C5D154F83D0B016841F4007188
:100A60000160202004F81E09E67766770020C7E7BA
:100A7000FFE70220C4E70000020010000000FFFFB3
:100A800010B586B000210091019102910391006898
:100A90000F4988421AD10F4CA06940F00800A061AC
:100AA000A069694600F008000490C0200090122060
:100AB0000190032003900848FFF7D2FCE06940F45E
:100AC0000010E061E06900F40010049006B010BD71
:100AD0000054004000100240000C014002488168B0
:100AE000027811448160704734000020074810B537
:100AF000016841F010010160032000F067F80F2049
:100B000000F006F800F024F8002010BD002002409C
:100B100070B50D4D04464FF47A712878B1FBF0F0B2
:100B20000A490968B1FBF0F000F0CEFA48B9102C80
:100B300007D200222146501E00F028F800206C60E9
:100B400070BD012070BD0000340000204000002076
:100B50000C4808B5816941F001018161816901F0AA
:100B600001010091C16941F08051C161C06900F08B
:100B7000805000900448416821F0E06141F000712C
:100B8000416008BD0010024000000140F0B40E4B6F
:100B90001B680C46C3F30223C3F10705042D00D9DB
:100BA0000425191D072901D2002300E0DB1E0126C0
:100BB00006FA05F1491E214099409E40761E1640D6
:100BC0003143F0BC01F0B5B80CED00E0064900F08F
:100BD000070208684FF6FF03184040EA0220034A64
:100BE00010430860704700000CED00E00000FA05BB
:100BF0002DE9F0470F46050061D0434E306800F004
:100C00000700B84209D2306820F00700384330604E
:100C1000306800F00700B84251D128683B4C81078A
:100C200012D5400703D5606840F4E0606060287822
:100C3000000703D5606840F4605060606068A96890
:100C400020F0F000084360602878C00728D068686A
:100C5000012810D02168022810D0890700292EDA37
:100C6000616821F0030101436160FFF7F3FC8046F6
:100C700041F288390DE021688903EFE78901EDE74A
:100C8000FFF7E8FCA0EB0801494502D90320BDE8C5
:100C9000F0876068696800F00C00B0EB810FEFD15D
:100CA000306800F00700B8420BD9306820F0070028
:100CB00038433060306800F00700B84201D00120AE
:100CC000E5E72878400705D56068E96820F4E0602A
:100CD000084360602878000706D56068296920F419
:100CE000605040EAC100606000F038F86168084A6E
:100CF000C1F30311515CC84006490860064800680A
:100D0000FFF706FF0020C2E700200240001002406B
:100D10000445000840000020380000200448054930
:100D200000684968044AC1F30221515CC840704719
:100D30004000002000100240144500080448054906
:100D400000684968044AC1F3C221515CC840704739
:100D50004000002000100240144500080E4A51686F
:100D60000E4801F00C03042B11D0082B0FD10C48B6
:100D7000C1F38343C903C05C0AD55168084AC1F373
:100D80004041921E515C054A5043B0FBF1F0704760
:100D900004494843704700000010024000127A00E6
:100DA000F444000800093D002DE9F84F040070D01C
:100DB0002078C04DC00749D06868C0F38100012881
:100DC00007D06868C0F38100022809D16868C003B1
:100DD00006D52868800339D560680028E7D035E05B
:100DE0006068B0F5803F0BD010B1B0F5A02F11D0E6
:100DF000286820F480302860286820F4802002E0F1
:100E0000286840F480302860606890B1FFF722FCC9
:100E100006460AE0286840F480202860F0E700BF1A
:100E2000FFF718FC801B642873D828688003F7D567
:100E30000CE0FFF70FFC064605E000BFFFF70AFCD9
:100E4000801B6428F0D828688003F7D420789A4E55
:100E500080074FF001094FF0000839D5686810F09D
:100E60000C0F07D06868C0F38100022809D16868B8
:100E7000C00306D42868800714D52069012808D14A
:100E800010E02069B0B1C6F80090FFF7E3FB074619
:100E900005E00AE1FFF7DEFBC01B0228C4D8286882
:100EA0008007F7D52868616920F0F80040EAC100A2
:100EB00028600DE0C6F80080FFF7CCFB074604E091
:100EC000FFF7C8FBC01B022823D828688007F7D487
:100ED000207800072CD57948A169D9B1C0F80090D5
:100EE000FFF7B8FB074604E0FFF7B4FBC01B02287E
:100EF0000FD8686A8007F7D571484FF4FA51006837
:100F0000B0FBF1F0009000BF0098411E0091FAD2B2
:100F10000EE080E0C0F80080FFF79CFB074604E08D
:100F2000FFF798FBC01B022875D8686A8007F7D4C2
:100F30002078400760D5E8690027C00008D4E86938
:100F400040F08050E861E869012700F0805000908F
:100F50005C480168C90513D40168834641F4807177
:100F60000160FFF777FB824606E000BFFFF772FBE8
:100F7000A0EB0A0064284ED8DBF80000C005F5D5C8
:100F8000E06801280AD008B1052813D0286A20F0AB
:100F900001002862286A20F0040002E0286A40F07C
:100FA00001002862E06841F2883B98B1FFF752FBEC
:100FB00082460BE0286A40F004002862EEE700BF9A
:100FC000FFF748FBA0EB0A0159455AD8286A800769
:100FD000F6D50CE0FFF73EFB824605E0FFF73AFB53
:100FE000A0EB0A0159454CD8286A8007F6D41FB1F6
:100FF000E86920F08050E861E06988B36968C1F36E
:101000008101022944D00228C6F8608004D0FFF78D
:1010100021FB044638E034E0FFF71CFB074604E000
:10102000FFF718FBC01B02282BD828688001F7D4D3
:10103000206AB0F5803F05D16868A16820F40030CF
:1010400008436860D4E908010843696821F4741111
:1010500008436860C6F86090FFF7FCFA044606E0B3
:1010600025E000BFFFF7F6FA001B022809D8286820
:101070008001F7D51BE000BFFFF7ECFA001B022848
:1010800002D90320BDE8F88F28688001F4D40EE06F
:101090000128F7D06868226A00F48031914204D1B7
:1010A000616A00F47010884201D00120EAE7002054
:1010B000E8E7000000100240000042428004424283
:1010C000400000200070004010B5401EB0F1807F4D
:1010D00001D3012010BD4FF0E02460610F216017A3
:1010E00000F027FE0020A06107202061002010BD35
:1010F00070B590F83C20012A26D0012480F83C40AD
:10110000022280F83D2003685A689D6822F070062C
:101110000A6832435A600D4B02689A4208D0B2F115
:10112000804F05D00A4B9A4202D00A4B9A4204D112
:10113000496825F080031943916080F83D40002103
:1011400080F83C10084670BD022070BD002C0140A4
:10115000000400400008004010B5040003D094F8DB
:101160003D0010B107E0012010BD002084F83C00D4
:10117000204600F01FF8022084F83D00211D206861
:1011800000F008FD012084F8460084F83E0084F851
:101190003F0084F8400084F8410084F8420084F85D
:1011A000430084F8440084F8450084F83D000020A2
:1011B00010BD000008B500680649884208D10648FD
:1011C000816941F400618161806900F400600090F0
:1011D00008BD0000002C01400010024090F83D10B6
:1011E000012901D001207047022180F83D100068DC
:1011F0000B49884208D0B0F1804F05D00949884298
:1012000002D00949884204D1816801F0070106290A
:1012100003D0016841F00101016000207047000027
:10122000002C0140000400400008004001680A6AE8
:1012300041F211131A4207D10A6A9B101A4203D1D4
:101240000A6822F001020A60012180F83D100020A6
:10125000704770B5044690F83C000025012817D06F
:10126000012684F83C60022084F83D0020688268F2
:1012700022F0770222F47F4282600868502838D03A
:101280000DDC20284FD005DC90B3102811D14AE0A6
:10129000022070BD302846D040280AD13BE06028AB
:1012A0002FD070280DD0B0F5805F03D0B0F5005F6F
:1012B00012D0012584F83D60002084F83C002846C7
:1012C00070BDCB68D1E90121206800F09FFC206847
:1012D000816841F0770109E0CB68D1E901212068FC
:1012E00000F094FC2068816841F480418160E1E76E
:1012F00019E0CA684968206800F09AFC502120680B
:1013000006E0CA684968206800F0A3FC60212068F4
:1013100000F086FCCEE7CA684968206800F088FCC7
:1013200040212068F4E7226801461046F0E770B5D6
:10133000040004D094F84100002510B106E001201B
:1013400070BD84F84050204600F024F8242084F832
:1013500041002068C16821F40051C160204600F0BE
:101360008BFC2068016921F490410161206841698A
:1013700021F02A0141612068C16841F40051C16037
:101380006564202084F8410084F8420065630020F1
:1013900070BD000030B585B0002400940194029423
:1013A000039400681449884224D11448816941F4A7
:1013B00080418161816901F480410491816941F03A
:1013C0000401816180690E4D00F0040004904FF427
:1013D0000070009002200190032003906946284687
:1013E000FFF73EF82815CDE9000469462846029427
:1013F000FFF736F805B030BD00380140001002405C
:1014000000080140FEE701684A69D24352050FD443
:101410006FF480624A61002140F8301F202242733D
:101420008173026942F00402026101730120704776
:1014300000207047F8B50446C06A1E460D461746A0
:10144000082807D0012805D010F5803F02D0206B76
:10145000122804D12068016841F4807101601346AC
:1014600000224FF001112046009600F05DF840B1D7
:1014700020680068C00502D54FF400702064032086
:10148000F8BD2069B0F5804F0ED00620216800EA33
:10149000D51040F0F000086133463A460B4920462B
:1014A00000F08AF878B902E005F0FE0000E0E8B24A
:1014B00021680861054933463A46891F204600F0F5
:1014C0007BF80028DCD00120F8BD000008000100F6
:1014D00070B516460D4604461EE02046FFF793FF02
:1014E00008B1012070BD681C16D0FFF7B3F8801B4F
:1014F000A84200D885B920684069C04340070BD591
:10150000002044F8300F20216173A073216941F05D
:10151000200121612073E4E720684069C04340074F
:10152000DBD4002070BD00002DE9F0479846174637
:101530000D460446C1F30746DDF820902AE000BFBF
:10154000B8F1FF3F26D0FFF785F8A0EB0901414530
:1015500002D8B8F1000F1DD12068012E16D0806985
:1015600025EA00000004000C12D00020B84211D17E
:10157000002044F8300F20216173A073216941F0ED
:101580002001216120730120BDE8F0874069E7E771
:101590000120EBE72068012E0AD0806925EA0000CF
:1015A0000004000C06D00020B842C9D00020EBE7B0
:1015B0004069F3E70120F7E72DE9F0479846164622
:1015C0000D4604464FF000094FF0200AC1F30747CB
:1015D00023E020684069C043400515D420680168B5
:1015E00041F40071016021686FF480604861C4F8C3
:1015F000309084F83DA084F83E90216C41F00401C5
:10160000216484F83C9021E0701C06D0FFF722F89A
:10161000A0EB0800B04203D816B1012F1FD021E083
:101620002068012F15D0806925EA00000004000C15
:1016300018D000BF44F8309F84F80DA084F80E90B5
:10164000216941F02001216184F80C900120BDE85E
:10165000F087406925EA00000004000CEAD1206808
:10166000406901E02068806925EA00000004000C60
:10167000AFD1ECE770B516460D4604461EE0204695
:10168000FFF7C1FE08B1012070BD681C16D0FEF73F
:10169000E1FF801BA84200D885B920684069C0439B
:1016A00000060BD5002044F8300F20216173A07391
:1016B000216941F0200121612073E4E7206840693D
:1016C000C0430006DBD4002070BD00002DE9F041CE
:1016D00086B0002426480094019402940394816902
:1016E00041F020018161816901F02001049181694B
:1016F00041F004018161816901F004010491816973
:1017000041F00801816180691A4F00F008000490DF
:101710000022F0213846FEF798FFDFF85C800022B7
:1017200001214046FEF791FF0F2001258DE8310091
:1017300069463846FEF794FEF0200226CDE9000502
:10174000CDE9024669463846FEF78AFE03960095C3
:10175000CDE9015469464046FEF782FECDE90064BA
:10176000694640460294FEF77BFE06B0BDE8F08174
:101770000010024000080140000C014010B586B086
:10178000002417480094019402940394049413498C
:101790000594C0E900144FF6FF71C0E902410461ED
:1017A00044618461FFF7D8FC08B172B6FEE74FF4DC
:1017B0008050009069460A48FFF74BFD08B172B6A9
:1017C000FEE7049404A906480594FFF791FC00285D
:1017D00001D072B6FEE706B010BD0000002C01403B
:1017E00098040020FEE7FEE7704730B585B0144648
:1017F0000D460222694600F0B3FA224629466846A1
:1018000000F05CF905B030BD70B588B00D460646F5
:10181000144620216846FEF703FD02226946304641
:1018200000F09EFA22462946684600F047F908B0C3
:1018300070BD30B589B014460D460222694600F0ED
:101840008FFA22462946684600F038F909B030BDC3
:1018500070B5802813D2402911D20B4B012401F01E
:1018600007051E79AC40094BC90800EBC1100EB149
:1018700032B101E0012A03D0195CA143195470BDB3
:10188000195C2143FAE70000180000204400002002
:1018900028B1FF224FF480610248FEF7B9BC002254
:1018A000F8E7000044000020014A10805180704792
:1018B0001800002010B500F021FF44F6206301223B
:1018C00078215448FEF790FF08B1002010BD40F683
:1018D000C210401EFDD1AE220021782000F014FF7E
:1018E00020220021782000F00FFF10220021782014
:1018F00000F00AFFB0220021782000F005FFC82286
:101900000021782000F000FF00221146782000F02E
:10191000FBFE10220021782000F0F6FE402200217C
:10192000782000F0F1FE81220021782000F0ECFE0A
:10193000FF220021782000F0E7FEA122002178207C
:1019400000F0E2FEA6220021782000F0DDFEA822B1
:101950000021782000F0D8FE3F220021782000F0FE
:10196000D3FEA4220021782000F0CEFED322002155
:10197000782000F0C9FE00221146782000F0C4FE55
:10198000D5220021782000F0BFFEF022002178202F
:1019900000F0BAFED9220021782000F0B5FE222204
:1019A0000021782000F0B0FEDA220021782000F03B
:1019B000ABFE12220021782000F0A6FEDB220021DF
:1019C000782000F0A1FE20220021782000F09CFE6B
:1019D0008D220021782000F097FE1422002178202B
:1019E00000F092FEAF220021782000F08DFE2E2222
:1019F0000021782000F088FE0020FFF749FF00F06A
:101A000071F805480021018041800121417108469B
:101A100010BD000044040020180000202DE9F0470C
:101A2000814625480D46924601882A78114480292E
:101A300005D28046408869780844402802D30020B7
:101A4000BDE8F08700262AE0A9F1200101FB006033
:101A50006A68002432F810701DE000BF07FA04F035
:101A6000000409D5B8F80210B8F800003144204449
:101A700089B280B252460BE0BAF1000F1AD00022B0
:101A8000B8F80210B8F800003144204489B280B29E
:101A9000FFF7DEFE641C2878A042DFD8761C687849
:101AA000B042D1D8B8F800102A7848461144A8F8B6
:101AB0000010C5E70122E3E71800002070B51546C5
:101AC0000E46044609E02A463146FFF7A7FF217873
:101AD000884201D0C8B270BD641C20780028F2D1C1
:101AE000C0B270BD70B5104D002400BF04F1B0004D
:101AF000C2B20021782000F007FE002211467820B3
:101B000000F002FE10220021782000F0FDFD05EB20
:101B1000C41280234021782000F006FE641CE4B249
:101B2000082CE3D370BD0000440000207047FEF78E
:101B3000D5BF30B58FB028216846FEF771FB142160
:101B40000AA8FEF76DFB01210804CDE9001000246E
:101B5000029402250491CDE907504FF4E01009905A
:101B60006846FFF721F908B172B6FEE70F20CDE90C
:101B70000A054FF48060CDE90C4002210AA80E94BA
:101B8000FFF736F8002801D072B6FEE70FB030BD7F
:101B900070470000F0B50268194B1A4C1A4D4FF00F
:101BA0008047984205D0B84203D0A04201D0A84255
:101BB00003D122F070064A683243984205D0B842F9
:101BC00003D0A04201D0A84203D122F44074CA68D5
:101BD00022434C6922F08002224302608A68C2627A
:101BE0000A688262984201D1096901630121416159
:101BF0000169C90703D0016921F001010161F0BD4C
:101C0000002C0140000400400008004010B584682A
:101C100042EA032224F47F440A432243826010BD37
:101C2000826822F070020A4342F007018160704727
:101C300010B5036A046A24F001040462846924F084
:101C4000F00444EA021423F00A020A4384610262A7
:101C500010BD10B5036A046A24F01004046284699C
:101C600023F0A00324F4704444EA023243EA011151
:101C70008261016210BD000070B504460068016910
:101C8000E26821F44051114301612169A0680843D1
:101C9000616908432168CA6841F20C639A430243B0
:101CA000CA6020684169A26921F440711143416111
:101CB0001E492068884202D1FFF740F801E0FFF793
:101CC0002DF800EBC00101EB001260686421800078
:101CD000B2FBF0F3B3FBF1F36FF018067343B2FB02
:101CE000F0F5B2FBF0F605EB8305322303EB0515A7
:101CF000B5FBF1F5B6FBF1F605F0F00505EB0615C1
:101D0000B2FBF0F6B2FBF0F0B0FBF1F06FF01802AE
:101D1000504306EB800003EB0010B0FBF1F02168AC
:101D200000F00F002844886070BD000000380140BA
:101D3000FEE70907090E002804DB00F1E02080F827
:101D40000014704700F00F0000F1E02080F8141D2F
:101D50007047002213461046114600F0E7BD000010
:101D60002DE9F04186B016460C46074601F094FB7B
:101D7000054601F0ADFB394601F08EFC0246002D10
:101D800003DA2D2004F8010B6D4200200A23694676
:101D900095FBF3F703FB175795FBF3F530370F541B
:101DA000401C002DF4DC03E0401E0B5C04F8013BFA
:101DB0000028F9DC002E1ADD2E2004F8010B002586
:101DC000DFF8348011E04146104601F099FB0746E8
:101DD00001F062FB00F1300104F8011B01F078FB17
:101DE000394601F059FC02466D1CB542EBDB002080
:101DF000207006B0BDE8F081000020412DE9F041DF
:101E0000C1F30A52A2F2FF362F4A304B0D46044668
:101E1000142E2FDA002E12DA00F0D4FC0022134622
:101E200001F0BEF84CD2002DA4BF0024254647DAAD
:101E300025F00040204318BF254D41D018E0DFF8C1
:101E400094C02CFA06F705EA070C5CEA040C08BFFC
:101E5000BDE8F08100F0B6FC0022134601F0A0F8C6
:101E60002ED2002D03DA4FF48010F0400544BD431C
:101E7000002425E0332EC8BFBDE8F081A6F1140C84
:101E80004FF0FF3727FA0CF73C4208BFBDE8F0815E
:101E900001F0BCF80022134601F082F810D2002DA8
:101EA0000DDA142E08BF6D1C09D0C6F134000121D3
:101EB00001FA00F02044A04238BF6D1C0446BC4328
:101EC00029462046BDE8F0819C7500883CE4377EB9
:101ED0000000F0BFFFFF0F0070B514461D460E4610
:101EE000002814BF01210021314321F00041C1F13C
:101EF0007F6101F1E041C90F16D1002C14BF01210F
:101F00000021294321F00041C1F17F6101F1E0414D
:101F1000C90F09D11449B1EB460F08BF00281CD0E6
:101F2000690008BF002C18D0314600F08BFF024634
:101F300040F2FF7030EA11500DD0F017B0EBE17FA6
:101F400009D0084665F31E0084460B4620466146CC
:101F500001F05CF80246104670BD0120FEF706FA5B
:101F6000BDE87040FFF7F5BE0000E0FF2DE9F34F3C
:101F700083B00546DFF8289101264FF00008494C50
:101F80004FF07E5ADFF820B100F072FA012878D0C5
:101F9000A0F13007092F24D828680090E06060681D
:101FA00090B1206801F028F9404A414B00F052FE00
:101FB00000F0D6FB20600190384601F089FA0199C3
:101FC00001F09EFA009908E0384601F081FA0746D0
:101FD0003849009801F094FA394601F039F928603F
:101FE000D2E72E280BD041280BD0422822D04428FB
:101FF00025D0432851D14046CBF800800EE06660E2
:10200000C2E7A06870B12868049901F079FA4F46D8
:10201000D9F8001001F01CF9386040462860C4E986
:1020200000A0B1E7A6602868049901F069FAC9F830
:102030000000F2E7CBF80060C4F80880A4E760680D
:1020400000B3206850451DDA01F0D6F8074600912C
:10205000286801F0D1F83A46009BFFF73DFF07469C
:102060000091286801F0C8F83A46009B00F0DAFFBA
:1020700000F076FB28600F49206801F041FA2060EB
:1020800082E70AE00B49286801F044F901F0B4F84E
:10209000FFF7B4FE00F064FBA1E705B0BDE8F08FE8
:1020A00030000020080000202C0000209A99999907
:1020B0009999B93F000020410161704770B50B4903
:1020C0000B4A0C4D0968B1FBF2F429684443002027
:1020D00048622846FFF782F82868416AA142FCD38B
:1020E000BDE870400348FFF7A1B8000040000020A1
:1020F00040420F00980400202DE9FF479A461646FB
:10210000894604460C9F00F033F8C4F800902681FD
:10211000C4F804A06781002503204FF00108CDE931
:102120000250CDE9006869464846FEF799F9CDE9C5
:10213000007569465046CDF80880FEF791F921896F
:1021400001222068FEF781FA0A20FEF777F921893B
:1021500000222068FEF779FA0A20FEF76FF9204680
:1021600000F038F8204600F035F82575BDE8FF8707
:1021700010B5044602E000BFFEF760F9207D00289C
:102180004FF00100F8D1207510BD2DE9F0410F4648
:102190008046FFF7EDFF00252C462E460BE040461B
:1021A00000F018F8451944EBE0744FF00500FEF715
:1021B00045F9761CB6B2BE42F1D300263A46334604
:1021C00028462146FEF700F8C8F80C0088F814608D
:1021D000BDE8F08170B504460025FEF73BFA0646DF
:1021E00009E00120FEF72AF9FEF734FA801B962851
:1021F00001D9002070BD61896068FEF721FA0128CD
:10220000EFD00026218901222068FEF71EFA012066
:10221000FFF754FF218900222068FEF716FA0120FB
:10222000FFF74CFF6D0061896068FEF709FA01282D
:1022300000D16D1C761C76B2182EE3DB85F4000508
:10224000218901222068FEF700FA0120FFF736FFFE
:10225000218900222068FEF7F8F90120FFF72EFF00
:10226000284670BD2DE9F0410F468046FFF780FFFC
:1022700000252C462E460CE04046FFF7ABFF0146FA
:102280004D1944EBE0744FF00500FEF7D7F8761CCB
:10229000B6B2BE42F0D300263A463346284621461F
:1022A000FDF792FFD8F80C10401A01F011F9D8F898
:1022B000101001F02FF888F81460BDE8F0810000DC
:1022C00008B5FEF713FCFFF734FCFFF7FFF9FFF743
:1022D00055FA54485249002401604FF41651C0E9A0
:1022E00001140C21C460C0E904418461C461FFF79A
:1022F0001EF808B172B6FEE74A484B499C380160A7
:102300004A49C0E901144FF48041C0E903414461E6
:102310008461C4610462FEF7A3F908B172B6FEE7F6
:102320000220009042493F480B4601224830FFF707
:10233000E3FE3C483F494830FFF7BEFE39480A21DA
:102340004830FFF722FFFFF7B5FADFF8EC80DFF83F
:10235000EC903B4D4FF400074FF07E5631480A2178
:102360004830FFF77FFF00F047FF42464B4600F042
:1023700059FE00F0F5F92860B84200DA2C60FFF74A
:10238000B1FB00210846FFF78FFA01222D492EA04C
:10239000FFF794FB01222B492868FFF726FA142146
:1023A0000020FFF781FA0122264929A0FFF786FBCA
:1023B000FFF798FB22482968001DFFF7D7FD01228F
:1023C00020496868FFF735FA6868B04204DA0122EC
:1023D0001C4921A0FFF772FBFFF784FB2821002096
:1023E000FFF762FA012217491FA0FFF767FBE868B1
:1023F00080B1286901221349A860FFF705FAA8688F
:10240000B04204DA01220F4913A0FFF757FBFFF790
:1024100069FBA3E7D5E9000101F072F8EAE70000E3
:1024200000380140E004002000540040A086010074
:10243000000C014024D90C4714AE47E17A543640D1
:1024400020000020000000205765693A00000000CD
:10245000556E69743A0000002020202020202020A2
:102460002020202020202000546F74616C3A00004E
:1024700010B5A14C002210212046FEF7E6F80122FB
:1024800020212046FEF7E1F8012240212046FEF7F8
:10249000DCF8012280212046FEF7D7F801212046F2
:1024A000FEF7CEF800287CD002212046FEF7C8F8BF
:1024B000002877D004212046FEF7C2F8002872D009
:1024C00008212046FEF7BCF800286DD0012210211B
:1024D0002046FEF7BAF8002220212046FEF7B5F884
:1024E000012240212046FEF7B0F80122802120463B
:1024F000FEF7ABF801212046FEF7A2F8002870D0C5
:1025000002212046FEF79CF800286BD004212046CB
:10251000FEF796F800286ED008212046FEF790F8C6
:10252000002869D0012210212046FEF78EF80122F2
:1025300020212046FEF789F8002240212046FEF7A0
:1025400084F8012280212046FEF77FF801212046F1
:10255000FEF776F8002870D002212046FEF770F8CA
:1025600000286BD004212046FEF76AF800286ED0C0
:1025700008212046FEF764F8002869D001221021C6
:102580002046FEF762F8012220212046FEF75DF882
:10259000012240212046FEF758F8002280212046E3
:1025A00003E020E029E030E037E0FEF74EF80121BB
:1025B0002046FEF745F800287DD002212046FEF790
:1025C0003FF800286DD004212046FEF739F8002896
:1025D00068D008212046FEF733F8002873D0012088
:1025E00010BD22E02BE001212046FEF729F800284B
:1025F000F9D03120F4E72CE033E002212046FEF749
:102600001FF80028F9D03220EAE704212046FEF71F
:1026100017F80028F9D03320E2E708212046FEF71A
:102620000FF80028F9D04120DAE701212046FEF713
:1026300007F80028F9D03420D2E71AE021E002217F
:102640002046FDF7FDFF0028F9D03520C8E71FE040
:1026500029E004212046FDF7F3FF0028F9D03620B9
:10266000BEE708212046FDF7EBFF0028F9D0422005
:10267000B6E701212046FDF7E3FF0028F9D0372017
:10268000AEE702212046FDF7DBFF0028F9D005E088
:1026900004212046FDF7D4FF0028F9D039209FE718
:1026A00009E011E018E008212046FDF7C9FF0028E5
:1026B000F9D0432094E701212046FDF7C1FF00280F
:1026C000F9D02E208CE70FE002212046FDF7B8FF5D
:1026D0000028F9D0302083E704212046FDF7B0FF21
:1026E0000028F9D023207BE708212046FDF7A8FF2A
:1026F0000028F9D0442073E7000801400148401E3B
:10270000FDD1704790D003001CB502238DF8041052
:102710000A2100918DF80520014601AA0148FEF723
:1027200019F91CBD4404002070B5C2B000248DF816
:10273000041001A904E0155D0E19641C7570E4B263
:102740009C42F8D30A2100915B1C01469BB201AA6E
:102750000248FEF7FFF842B070BD000044040020BC
:1027600021F00042A2F16052B2F5801F01F0004357
:1027700028BFD2F17F6C0BD95FEA001C43EAC2028A
:1027800042EB507018BF704728BF20F0010070471F
:10279000B2F5801FBCBF184670474FEA410C1CF5CC
:1027A000001F02D2084600F072BF70B500F0FCFABC
:1027B00000000089FFF7F6BF4FF00040A0F5800051
:1027C0007047000010B591EA030F48BF83F0004343
:1027D00000F13084841A71EB030C05D2121943EB1B
:1027E0000C03001B61EB0C01DFF824E14FEA1154EC
:1027F000A4EB135C1EEA430F18BF9EEA445F73D03C
:1028000023EA0E03DCF1200E21EA045143F4801385
:1028100032D322FA0CFE10EB0E0023FA0CFE41EB31
:102820000E01CCF1200E03FA0EFE10EB0E0051F15A
:102830000001B1F5801FCCF1200E32D201EB045122
:1028400012FA0EF2BDE8104058BF7047401C38BF66
:102850005FEA420218BF7047002814BF20F0010051
:1028600041F100014FEA410313F5001F38BF7047E3
:10287000A1F1C04100F08EBB012A43EB0302ACF191
:10288000200CDCF11F0E32BF4FF0000E23FA0CF3C8
:1028900010EB030041EB0451B4EB115FD0D0A1EB7E
:1028A000045101F5801149085FEA300001EB045141
:1028B0000ED350F1000038BF12FA0EFE08D1BDE869
:1028C0001040C9E7401C38BF5FEA4202CAD1C3E7E3
:1028D000BDE810404FEA410313F5001F38BF7047B1
:1028E000A1F1C04100F056BB9EEA445F08D011EA56
:1028F0005E0FBDE8104004BF01F0004100207047AA
:10290000BDE8104070B500F04FFA00BF64FBBE3E5A
:102910000000E0FF491058BFC1F140415B1058BFB3
:10292000C3F140438B42EFF3008070472DE9C04173
:1029300030B4DFF8A0C23CEA111418BF3CEA13140B
:1029400000F0EC8081EA03051CEA111444EAD57416
:1029500018BF1CEA131500F0C780A4EB05044FF064
:10296000004545EAC12145EAC32341EA505143EA03
:10297000525304F17F74994204F500344FEAC020A9
:102980004FEAC22208BF904200F09C804FEA1365D4
:102990000FF24016765D4FEA134506FB05F7C7F1C7
:1029A000807706FB07F74FEAD737A7FB0368764225
:1029B000C8F58038A7FB06CE38BFA8F1010807FB91
:1029C00008E64FF0000EA6FB028CE6FB03CEDCF11E
:1029D000000CCEF1004E38BFAEF1010EA6FB0C5834
:1029E0004FF000074FF00005E6FB0E87A1FB08C67D
:1029F000A0FB07CE16EB0E0645F10005E1FB0765CF
:102A000015F1E04E7EBFA4F580345FEA46066D41C5
:102A100016F1800745F100054FEA17274FEA0666D1
:102A200047EA0567A6F1DE46B6F1805F4FEA152555
:102A30001FD9384624F0010C05EBC471BCF1FE6FC0
:102A400001EB0C1102D8F0BCBDE8008124425CBF50
:102A500001F5801E9EEAC47F02D4F0BCBDE800816F
:102A6000244238D4F0BCA1F1C041BDE8004100F0DF
:102A700091BA4FEAD22242EA43524FEAD323A7FB4C
:102A800002864FEAD02040EA415007FB03661EEA67
:102A90000E0F4FEAD12105FB026658BFA6EB005688
:102AA000B6EB00564FEA520E4EEAC37E18EB0E0EFE
:102AB00056EB530EBDD518EB02085E417F1C55F155
:102AC0000005B6E74FF480154FF000074FF0000601
:102AD0004FF00008ADE7F0BC4FF0000001F1C0413D
:102AE00001F00041BDE8008111EA0C1F0CEA13154A
:102AF00000D00CE013EA0C1F00F025804FF000001E
:102B0000F0BC81EA030101F00041BDE80081F0BCA6
:102B1000BDE8004181EA030100F03CBAF0BCBDE829
:102B2000004170B500F040F9097EFC3E00F007B8A6
:102B300081EA03014FF0000001F00041704781EA93
:102B4000030100F027BAF0BCBDE800414FF00000DF
:102B500021497047FFFDFBF9F7F5F4F2F0EEEDEBDC
:102B6000E9E8E6E4E3E1E0DEDDDBDAD8D7D5D4D38B
:102B7000D1D0CFCDCCCBCAC8C7C6C5C4C2C1C0BFD7
:102B8000BEBDBCBBBAB9B8B7B6B5B4B3B2B1B0AFDD
:102B9000AEADACABAAA9A8A8A7A6A5A4A3A3A2A1C1
:102BA000A09F9F9E9D9C9C9B9A999998979796957C
:102BB00095949393929191908F8F8E8E8D8C8C8B18
:102BC0008B8A8989888887878685858484838382A0
:102BD000828181800000FF070000F87F51EA030C2A
:102BE00017D41CF5801F58BFBCF5801F00F106806C
:102BF000994218BF704708BF9042704707D711F538
:102C0000801F58BF13F5801F19D49942704789421D
:102C100070471CF5801F08D5BCF5801FF7D58B4287
:102C200018BF704708BF824270474FF4001C1CEB6E
:102C3000410F38BF1CEB430F01D28B42704770B578
:102C400000F0B2F8922449004FF000514FF0805349
:102C5000FFF760BEDFF848C170B51CEA111E1EBF49
:102C60001CEA13159EEA0C0F95EA0C0F00F06F801A
:102C700081EA030423EA4C134EEAD47E21EA4C1184
:102C800041F4801143F48013AE44A1FB024CA0FB3D
:102C90000365AEF17F7E361955EB0C05A1FB034CA5
:102CA0004CF10003A0FB021C16EB0C06654153F12E
:102CB0000003094218BF46F0010613F4007F0BD150
:102CC0004FEA03314FEA0530340341EA155140EA37
:102CD00016506FF003020AE04FEAC3214FEAC52005
:102CE000F40241EA555140EA56506FF0020202EBFD
:102CF0002E4201EB025585EACE710AD05FEA440C00
:102D000018BF24F0004450F1000041F1000120EA16
:102D1000D47040F2FE7C624500D270BDA84214BF60
:102D20004FF080444FF04044002E08BF0024BEF115
:102D3000806FA8BFA1F1C041BDE8704080F22A8138
:102D40004FF0000001F1C04101F0004170479EEAE0
:102D50000C0F0CEA131518BF95EA0C0F06D04FF0B4
:102D6000000081EA030E0EF0004170BD00F01CF877
:102D70008900013E00F007B800F009B84FEA430CA3
:102D80005FEA5C5C08D081EA030100F003B94FEA16
:102D9000410C5FEA5C5CF6D14FF0000001497047DE
:102DA0000000FF070000F87F0EF1020E2EF0030E68
:102DB0005EF8046B364205D4012A43EB030515F592
:102DC000001F12D8012841EB010C1CF5001F0CD884
:102DD0000ED14FEAD17C15F5001F0CEB4C0C0CF119
:102DE000020C08BF4CEBD37C04E04FF0080C01E070
:102DF0004FEAD37C0CEB4C0526FA05F606F00706E5
:102E0000B6F1040C06D20EEB860CBDE870404CF017
:102E1000010C6047DFE80CF0090B02024FF00041A3
:102E20004FF00000A1F5002170BD194610460128A1
:102E300051EB010418BFD4F5001484BF002001F049
:102E4000004170BDDFF844C170B53CEA111418BFF1
:102E50003CEA131500F08F8011F1004F1CEA1315A6
:102E60000CEA111468BF45F0050518BF11EA0C1FE4
:102E700000F079802E4621EA4C1123EA4C1341F4EC
:102E8000801143F48013A5F58035AC423DDD801AF6
:102E90009941A4F5803609D54042C1F1000134BF03
:102EA000B1F10101B1F1000185F0010511F4F01F4C
:102EB00008D011F4801FE8D1400041EB0101A4F5D6
:102EC0008034F6E721F00041B1FA81F6202E04BFEC
:102ED000B0FA80FE0EF12006A6F10B06B6F1200E28
:102EE000A4EB06440CD2C6F1200E01FA06F120FA3A
:102EF0000EF641EA0601CEF1200600FA06F003E0E4
:102F000000FA0EF14FF00000BFE750EA410E23D067
:102F10004FEA244EBEEB254F0FDB994208BF90428B
:102F200004D00AD3520043EB0303B0E74FEA16463E
:102F3000B6EB144F08BF85F00105B4F5803401EB02
:102F4000041181EAC57100DB70BD01F1C0414FF091
:102F5000000001F0004170BD4FEA45714FF00000E4
:102F600001F0004170BD1CEA131F09D04FF00000B2
:102F700001F0004170BDFFF717FF00BFEDFFFF3EFE
:102F8000BDE870404FF00000014970470000FF07A6
:102F90000000F87F0808A0F500114FEA31017047E2
:102FA00053EA010C17D41CF5801F58BFBCF5801FD5
:102FB00000F106808B4218BF704708BF82427047FD
:102FC00007D713F5801F58BF11F5801F19D48B4206
:102FD00070479B4270471CF5801F08D5BCF5801FC9
:102FE000F7D5994218BF704708BF904270474FF419
:102FF000001C1CEB430F38BF1CEB410F01D2994260
:1030000070470FB40CBC03BCFFF719BE91EA030F65
:1030100010B581F000413FF5DDAB83F0004300F0D7
:1030200009B8000010B591EA030F48BF83F00043D0
:103030003FF5D0AB841A71EB030C07D212198CF058
:10304000004C43EB0C03001B61EB0C01DFF8A4E127
:103050004FEA1154A4EB135C1EEA430F18BF9EEA1B
:10306000445F00F0B08023EA6E03524221EA04512B
:10307000C3EB6E0338BF5B1EDCF1200E25D322FAB2
:103080000CFE10EB0E0043FA0CFE41EB0E01CCF1EE
:10309000200E03FA0EFE10EB0E0051F10001CCF1F0
:1030A000200E29D412FA0EF201EB0451BDE81040B3
:1030B00058BF7047401C1CBFB2F1004F704700283A
:1030C0000CBF491C20F00100704712EB020E43EBCD
:1030D000030218BF4FF0010E4EEA4202ACF1200C81
:1030E000DCF11E0E54D943FA0CFE10EB0E0051F128
:1030F000FF31CCF11E0ED5D50EF1010E12FA0EFEE7
:10310000404141EB010101EB445C5FEA5C5C10D99A
:1031100010EBDE7001EB045138BFBEF1004FBDE88B
:10312000104018BF704700280CBF491C20F0010058
:10313000704730D24FEAD42C11F5001124F400640A
:103140001BD0B1FA81F20B3AA41AA41ED2F12003CB
:10315000914030FA03F31943904001EBCC71002CFD
:1031600001EB0451BDE81040A8BF704701F1C04118
:103170004FF0000001F000417047B0FA80F310FA00
:1031800003F100D110BDE41A173C4805C90AE4E771
:1031900001EB045110BD491001EB0451BDE8104092
:1031A0004FEA300002E04FF0000170474A0008BFCC
:1031B0000042F8D0B2F5001F28BF704701F000416F
:1031C0004FF0000070479EEA445F07D011EA5E0F9F
:1031D000BDE8104004BF002100207047BDE810404A
:1031E00070B5FFF7E1FD00BF40DFF63E83F0004120
:1031F000104670470000E0FF43004FEAD30C4FEA4F
:103200003C0C43401FBF40070CF1605113F0FE4FD0
:1032100070471CF0006F03D100200CF00041704794
:103220000CF0004343EA507010B540EACC0000F0C7
:10323000E8F900BF000000924FEA0001FFF7AABEC4
:103240004FF000414FF00000A1F500217047000051
:1032500090EA010F48BF81F0004100F12E82421A2E
:103260003CBF801A89184FEAD0524FF07F4C1CEABD
:10327000410FA2EBD15318BF9CEA026F00F03B80D4
:103280004FF0004C4CEA00204CEA012121FA03FCEB
:1032900010EB0C0C1ED202F1FF325FEA1C2040EB57
:1032A000C25038BF70471CF07F0F4FEA400C18BF68
:1032B000BCF17F4F38BF7047C3F12003994008BF6E
:1032C00020F00100BCF17F4F38BF7047A0F1C04033
:1032D00000F0DDB94FEA3C00000A40EBC25028BFC5
:1032E0001CF0FF0F4FEA400CE6D018BFBCF17F4F37
:1032F00038BF7047EAE79CEA026F05D010EA5C0F1E
:1033000008BF00F00040704710B500F07AF900BF28
:1033100064FBBE3E4FF47F0C1CEAD0121EBF1CEAB9
:10332000D11392EA0C0F93EA0C0F00F0858090EA1B
:10333000010F48BF42F4807240F4000C41F40000D9
:103340002CF07F4120F07F4000B58142A2EB0302C8
:103350000FF2081CACEB504EC0F100009EF800E0EC
:103360004FEA4E0E00FB0EFC38BF49004FEA2C1C02
:1033700002F5FA020CFB0EF34FEACE1E4FEA112CB7
:103380004FEAC1210EEB635E42EB22420EFB0CFCC6
:103390004FEA1C5300FB03114FEA112C4FEA013195
:1033A0000EFB0CFC4FEADC4C00FB0C11C14228BFA9
:1033B00009184CEB03335DF804EB10EB410143EBD0
:1033C000C250B2F57C0F38BF704729D512F0F00F0C
:1033D0001CBF00F1C04000F00040704700818283B4
:1033E0008485868788898B8C8D8E8F919293959614
:1033F00097999A9C9D9FA0A2A3A5A7A8AAACAEB09E
:10340000B2B3B5B7B9BCBEC0C2C5C7C9CCCED1D4A2
:10341000D7D9DCDFE2E6E9ECF0F3F7FAFE000000D2
:103420004FEA400C0CF1807CBCF17E4F28BF704706
:10343000B0F1C04000F02BB990EA010F0CEAD113B3
:1034400048BF42F48072624538BF634507D213F427
:103450007F0F16D080EA010000F00040704710B5E1
:1034600000F0CFF8097EFC3E00F005B880EA0100CC
:1034700000F00040704780EA010000F0004000F0DA
:1034800006B912F47F0F04BF0248704780EA0100BA
:1034900000F0FDB80000C07F41000B0ED3F19E028A
:1034A00008D950F400034FEA032323FA02F048BF7F
:1034B0004042704710B500F0A4F800BF4992248044
:1034C000002070476FF0004282EA20007047000041
:1034D00010F0004148BF4042B0FA80F310FA03F206
:1034E000C3F19D030BD051EAC35101EB12205306E7
:1034F00038BF704700F1010008BF20F0010070479D
:103500004FF47F0C1CEAD0121EBF1CEAD11392EAC2
:103510000C0F93EA0C0F00F0478090EA010F48BFB0
:1035200042F480724FF0004C4CEA00204CEA01213A
:1035300002EB0302A0FB0113A2F50002002918BF51
:1035400043F001035B0028BF4FEA330342EB224202
:103550005FEA132C4CEBC2502EBFBCEB436FB2F5AD
:103560007C0F70474FEA036CBCF1004F08BF20F09E
:103570000100B2F57C0F38BF70470BD582F0FF0217
:1035800012F5803FC8BF704700F1C040D8BF00F0BF
:103590000040704700F5000C5FEA4C0C48BF7047D4
:1035A000B0F1C04000F073B890EA010F0CEAD113FB
:1035B00048BF42F48072624538BF634504D280EA56
:1035C000010000F00040704710B500F01AF800BF8D
:1035D0008900013E00F007B800F009B85FEA410C2D
:1035E0005FEA1C6C08D080EA010000F050B85FEA86
:1035F000400C5FEA1C6CF6D14FF00040A0F5800053
:1036000070470EF1020E2EF0030E5EF8044B2442BA
:1036100004D44FEA4102B2F17F4F11D84FEA400380
:10362000B3F17F4F0CD80ED14FEAD07CB2F17F4F6F
:103630000CEB4C0C0CF1020C08BF4CEBD17C04E001
:103640004FF0080C01E04FEAD17C0CEB4C0324FA5C
:1036500003F404F00704B4F1040C06D20EEB840C5E
:10366000BDE810404CF0010C6047DFE80CF00708A3
:1036700002024FF00040A0F5800010BD0846420055
:1036800018BFD2F1807288BF00F0004010BDFF214A
:1036900041EAD050C005704780F0004090EA010F29
:1036A0007FF5DDAD81F0004100F007B890EA010F31
:1036B00048BF81F000413FF5D2AD421A04D882F0F4
:1036C0000042A0EB020011444FEAD0524FF07F4C71
:1036D0001CEA410FA2EBD15318BF9CEA026F4AD0FB
:1036E0004FF0004C4CEA00204CEA012121FA03FC87
:1036F000B0EB0C0C0FD412F0FE0F36D05FEA4C008A
:103700001DD5001240EBC25038BF70471CF03F0F70
:1037100018BF70470BE0A2F101025FEA1C2040EBEA
:10372000C25038BF70471CF07F0F18BF7047C3F1FD
:103730002003994014BF401E20F00100704780080C
:103740004FEA122308BF7047B0FA80FCA2EB0C02CC
:10375000CCF1280C60FA0CF093EA122F04BF00EBB6
:10376000C25070474FEAC3707047130A5FEADC101B
:1037700008BF7047F6E79CEA026F04D010EA5C0FBE
:1037800008BF0020704710B5FFF73BFF40DFF63E53
:1037900081F00040704700000000000000000000C1
:1037A0000000000000000000000000000000000019
:1037B000000000000000000000000000000C000CF1
:1037C000000C000C000C000C000C000C000C000C99
:1037D000000C0000000C000C0000000000000000C5
:1037E000001B001B001B001B001B00000000000052
:1037F00000000000000000000000000000000000C9
:10380000000000008019801980198019C07FC07FD6
:1038100080190033C07FC07F003300330033003392
:103820000000000000000000001E003F8075806561
:103830000074003C001E000780058065806580756F
:10384000003F001E0004000400000000007000D8CB
:1038500040D8C0D880D900730006000C801BC03649
:10386000C066C046C00680030000000000000000E3
:10387000001E003F003300330033001E000CC03C2C
:10388000C066806380618063C03E801C00000000D1
:1038900000000000000C000C000C000C000C0000EC
:1038A0000000000000000000000000000000000018
:1038B0000000000000008000000100030006000678
:1038C0000004000C000C000C000C000C000C0004A8
:1038D0000006000600030001800000200010001810
:1038E000000C000C0004000600060006000600069E
:1038F00000060004000C000C00180010002000005E
:10390000000C002D003F001E0033000000000000EE
:1039100000000000000000000000000000000000A7
:103920000000000000000000000C000C000C000C67
:10393000C0FFC0FF000C000C000C000C00000000D9
:103940000000000000000000000000000000000077
:103950000000000000000000000000000000000067
:10396000000C000C0004000400080000000000002F
:10397000000000000000000000000000001E001E0B
:103980000000000000000000000000000000000037
:103990000000000000000000000000000000000027
:1039A0000000000000000000000C000C00000000FF
:1039B00000000000000300030003000600060006EC
:1039C0000006000C000C000C000C00180018001879
:1039D0000000000000000000001E003F0033806176
:1039E00080618061806D806D806180618061003365
:1039F000003F001E00000000000000000006000E56
:103A0000001E00360026000600060006000600061E
:103A1000000600060006000600000000000000008E
:103A2000001E003F807380618061800100030006FA
:103A3000000C001800300060807F807F00000000D4
:103A400000000000001C003E006300630003000E45
:103A5000000E00038001800180618073003F001E22
:103A600000000000000000000006000E000E001E16
:103A7000001E0016003600360066807F807F00063C
:103A8000000600060000000000000000007F007F2C
:103A9000006000600060006E007F80638001800134
:103AA00080618073003F001E0000000000000000E5
:103AB000001E003F803380610060006E007F8073D5
:103AC0008061806180618033003F001E0000000043
:103AD00000000000807F807F80010003000300065B
:103AE0000006000C000C000C00080018001800185C
:103AF0000000000000000000001E003F80638061A5
:103B000080610021001E003F8061806180618061D2
:103B1000003F001E0000000000000000001E003FEB
:103B200000738061806180618073803F801D8001AF
:103B300080610073003F001E0000000000000000D4
:103B40000000000000000000000C000C000000005D
:103B50000000000000000000000C000C000000004D
:103B60000000000000000000000000000000000C49
:103B7000000C00000000000000000000000C000C21
:103B800000040004000800000000000000008000A5
:103B90008003000E003800600038000E80038000B3
:103BA0000000000000000000000000000000000015
:103BB00000000000807F807F00000000807F807F09
:103BC00000000000000000000000000000000000F5
:103BD00000000000000000400070001C0007800191
:103BE0000007001C00700040000000000000000002
:103BF00000000000001F803FC071C060C000C00115
:103C000080030007000E000C000C0000000C000CEC
:103C10000000000000000000001E003F80318071A5
:103C20008063806F806D806D806F80670060003280
:103C3000003E001C0000000000000000000E000E0E
:103C4000001B001B001B001B80318031803F803F28
:103C50008031C060C060C060000000000000000053
:103C6000007C007E0063006300630063007E007ED2
:103C70000063806180618063007F007E000000003F
:103C800000000000001E003F803180610060006085
:103C9000006000600060006080618031003F001EB5
:103CA0000000000000000000007C007F00638063D3
:103CB00080618061806180618061806100630063F8
:103CC000007E007C0000000000000000807F807FFC
:103CD0000060006000600060007F007F00600060A6
:103CE00000600060807F807F000000000000000016
:103CF000807F807F0060006000600060007F007F48
:103D00000060006000600060006000600000000073
:103D100000000000001E003F8031806100600060F4
:103D2000006080638063806180618031803F001E1D
:103D300000000000000000008061806180618061FF
:103D400080618061807F807F80618061806180612F
:103D5000806180610000000000000000003F003F23
:103D6000000C000C000C000C000C000C000C000CF3
:103D7000000C000C003F003F0000000000000000AD
:103D8000800180018001800180018001800180012B
:103D90008001806180618073003F001E0000000090
:103DA00000000000C0608061006300660066006C77
:103DB0000078007C00660066006380618061C060FE
:103DC0000000000000000000006000600060006073
:103DD00000600060006000600060006000600060E3
:103DE000807F807F0000000000000000C071C07173
:103DF000C07BC07AC06AC06AC06EC064C060C06068
:103E0000C060C060C060C060000000000000000032
:103E100080718071807980798079806D806D806D0E
:103E20008065806780678067806380630000000032
:103E300000000000001E003F00338061806180614F
:103E4000806180618061806180610033003F001E7D
:103E50000000000000000000007E007F80638061A1
:103E6000806180618063007F007E00600060006090
:103E7000006000600000000000000000001E003F25
:103E800000338061806180618061806180618065D4
:103E900080670033803F401E0000000000000000EB
:103EA000007E007F8063806180618063007F007E90
:103EB00000660063006380618061C06000000000F4
:103EC00000000000000E001F8031803100300038FB
:103ED000001E00078003806180618031003F001E6A
:103EE0000000000000000000C0FFC0FF000C000C3C
:103EF000000C000C000C000C000C000C000C000C62
:103F0000000C000C000000000000000080618061D7
:103F10008061806180618061806180618061806199
:103F200080618073003F001E000000000000000060
:103F3000C060C060C060803180318031001B001BD8
:103F4000001B001B000E000E000E0004000000000D
:103F500000000000C0C0C0C0C0C0C0C0C0C0C0CC55
:103F6000804C804C805E8052805280738061806182
:103F70000000000000000000C0C0806080610033CD
:103F8000003B001E000C000C001E001F003B807157
:103F90008061C0C00000000000000000C0C080615F
:103FA000806100330033001E001E000C000C000C6A
:103FB000000C000C000C000C0000000000000000D1
:103FC000803F803F8001000300030006000C000CCE
:103FD0000018001800300060807F807F0000000023
:103FE0000000000F000F000C000C000C000C000C77
:103FF000000C000C000C000C000C000C000C000C61
:10400000000C000F000F0000001800180018000C32
:10401000000C000C000C0006000600060006000361
:1040200000030003000000000000001E001E000648
:104030000006000600060006000600060006000650
:1040400000060006000600060006001E001E000016
:10405000000C000C001E00120033003380618061F0
:104060000000000000000000000000000000000050
:104070000000000000000000000000000000000040
:104080000000000000000000000000000000000030
:104090000000E0FF0000000000380018000C0000E5
:1040A0000000000000000000000000000000000010
:1040B0000000000000000000000000000000000000
:1040C00000000000001F803F80618001801F803F52
:1040D00080618063807FC038000000000000000025
:1040E0000060006000600060006E007F807380618F
:1040F0008061806180618073007F006E000000003D
:10410000000000000000000000000000001E003F52
:10411000807380610060006080618073003F001EDA
:10412000000000000000000080018001800180018B
:10413000801D803F807380618061806180618073B9
:10414000803F801D00000000000000000000000013
:1041500000000000001E003F00738061807F807FB0
:1041600000608071003F001E0000000000000000A1
:10417000C007C00F000C000C807F807F000C000C7B
:10418000000C000C000C000C000C000C00000000E7
:1041900000000000000000000000801D803F8073D0
:1041A00080618061806180618073803F801D8001BB
:1041B0008063007F003E00000060006000600060DF
:1041C000006F807F8071806180618061806180612B
:1041D0008061806100000000000000000006000611
:1041E00000000000003E003E00060006000600063B
:1041F00000060006000600060000000000000006A1
:10420000000600000000003E003E0006000600061A
:104210000006000600060006000600060046007EB6
:10422000003C00000060006000600060806100638E
:104230000066006C007C0076006300638061C060F3
:104240000000000000000000003E003E00060006E6
:10425000000600060006000600060006000600062E
:104260000006000600000000000000000000000042
:104270000000000080DDC0FFC0CEC0CCC0CCC0CCF0
:10428000C0CCC0CCC0CCC0CC0000000000000000FE
:104290000000000000000000006F807F80718061DE
:1042A00080618061806180618061806100000000C8
:1042B000000000000000000000000000001E003FA1
:1042C000807380618061806180618073003F001E27
:1042D0000000000000000000000000000000006E70
:1042E000007F807380618061806180618073007F66
:1042F000006E0060006000600060000000000000D0
:104300000000801D803F80738061806180618061DA
:104310008073803F801D800180018001800100004A
:1043200000000000000000000067803F00390030FE
:10433000003000300030003000300030000000005D
:10434000000000000000000000000000001E803F90
:1043500080610060007F803F80018061007F001EDF
:104360000000000000000000000000080018001815
:10437000007F007F001800180018001800180018AF
:10438000801F800F000000000000000000000000FF
:1043900000000000806180618061806180618061D7
:1043A00080618063807F803D00000000000000008D
:1043B0000000000000000000C060803180318031CA
:1043C000001B001B001B000E000E0006000000007A
:1043D00000000000000000000000000080DD80DD23
:1043E00080DD00550055005500770077002200223F
:1043F00000000000000000000000000000000000BD
:10440000806100330033001E000C000C001E0033DE
:104410000033806100000000000000000000000088
:10442000000080618061803100330033001B001B7D
:10443000001B000E000E000E001C007C007000002F
:104440000000000000000000C07FC07F800100036A
:104450000006000C00180030C07FC07F0000000084
:104460000000800380070006000600060006000624
:10447000000E001C001C000E0006000600060006D0
:1044800000068007800300060006000600060006FE
:1044900000060006000600060006000600060006EC
:1044A000000600060006000600060038003C000C6E
:1044B000000C000C000C000C000E00070007000EA2
:1044C000000C000C000C000C000C003C003800003C
:1044D0000000000000000000000000008038807F25
:1044E0000047000000000000000000000000000085
:1044F0000000010202030405060708090A0B0C0D5F
:104500000E0F101000000000000000000102030464
:104510000607080900000000010203043C450008EA
:104520000000002044000000280100088045000829
:10453000440000205C0B0000440100080B12000046
:10454000963700080000803F0000000000000000D7
:10455000000000000000000000000000000000005B
:10456000000000000000000000000000000000004B
:1045700001000000100000000000000000127A009E
:04000005080000ED02
:00000001FF
